{
  "contractName": "FootballBetting",
  "abi": [
    {
      "constant": true,
      "inputs": [
        {
          "name": "_betID",
          "type": "uint256"
        }
      ],
      "name": "getBet",
      "outputs": [
        {
          "name": "",
          "type": "uint256"
        },
        {
          "name": "",
          "type": "uint256"
        },
        {
          "name": "",
          "type": "uint256"
        },
        {
          "name": "",
          "type": "uint256"
        },
        {
          "name": "",
          "type": "int256"
        },
        {
          "name": "",
          "type": "address"
        },
        {
          "name": "",
          "type": "address"
        }
      ],
      "payable": false,
      "stateMutability": "view",
      "type": "function"
    },
    {
      "constant": true,
      "inputs": [
        {
          "name": "",
          "type": "uint256"
        }
      ],
      "name": "bets",
      "outputs": [
        {
          "name": "betID",
          "type": "uint256"
        },
        {
          "name": "proposer",
          "type": "address"
        },
        {
          "name": "acceptor",
          "type": "address"
        },
        {
          "name": "accepted",
          "type": "bool"
        },
        {
          "name": "acceptorAmount",
          "type": "uint256"
        },
        {
          "name": "proposerAmount",
          "type": "uint256"
        },
        {
          "name": "proposerHomeScore",
          "type": "uint256"
        },
        {
          "name": "proposerAwayScore",
          "type": "uint256"
        },
        {
          "name": "resolved",
          "type": "bool"
        },
        {
          "name": "fixtureID",
          "type": "int256"
        },
        {
          "name": "totalAmount",
          "type": "uint256"
        },
        {
          "name": "deleted",
          "type": "bool"
        }
      ],
      "payable": false,
      "stateMutability": "view",
      "type": "function"
    },
    {
      "constant": false,
      "inputs": [
        {
          "name": "_betID",
          "type": "uint256"
        }
      ],
      "name": "cancelBet",
      "outputs": [],
      "payable": true,
      "stateMutability": "payable",
      "type": "function"
    },
    {
      "constant": false,
      "inputs": [
        {
          "name": "_proof",
          "type": "bytes"
        },
        {
          "name": "_acceptorAmount",
          "type": "uint256"
        },
        {
          "name": "_home_score",
          "type": "uint256"
        },
        {
          "name": "_away_score",
          "type": "uint256"
        }
      ],
      "name": "proposeBet",
      "outputs": [],
      "payable": true,
      "stateMutability": "payable",
      "type": "function"
    },
    {
      "constant": false,
      "inputs": [
        {
          "name": "_betID",
          "type": "uint256"
        }
      ],
      "name": "acceptBet",
      "outputs": [],
      "payable": true,
      "stateMutability": "payable",
      "type": "function"
    },
    {
      "constant": false,
      "inputs": [
        {
          "name": "_betID",
          "type": "uint256"
        },
        {
          "name": "_proof",
          "type": "bytes"
        }
      ],
      "name": "resolveBet",
      "outputs": [],
      "payable": true,
      "stateMutability": "payable",
      "type": "function"
    },
    {
      "constant": true,
      "inputs": [],
      "name": "getBets",
      "outputs": [
        {
          "name": "",
          "type": "uint256[]"
        }
      ],
      "payable": false,
      "stateMutability": "view",
      "type": "function"
    },
    {
      "constant": false,
      "inputs": [
        {
          "name": "a",
          "type": "string"
        },
        {
          "name": "b",
          "type": "string"
        }
      ],
      "name": "compareStrings",
      "outputs": [
        {
          "name": "",
          "type": "bool"
        }
      ],
      "payable": false,
      "stateMutability": "nonpayable",
      "type": "function"
    },
    {
      "constant": true,
      "inputs": [],
      "name": "master",
      "outputs": [
        {
          "name": "",
          "type": "address"
        }
      ],
      "payable": false,
      "stateMutability": "view",
      "type": "function"
    },
    {
      "constant": true,
      "inputs": [],
      "name": "getNumberOfBets",
      "outputs": [
        {
          "name": "",
          "type": "uint256"
        }
      ],
      "payable": false,
      "stateMutability": "view",
      "type": "function"
    },
    {
      "constant": false,
      "inputs": [],
      "name": "Betting",
      "outputs": [],
      "payable": false,
      "stateMutability": "nonpayable",
      "type": "function"
    },
    {
      "anonymous": false,
      "inputs": [
        {
          "indexed": false,
          "name": "betID",
          "type": "uint256"
        }
      ],
      "name": "BetChange",
      "type": "event"
    }
  ],
  "bytecode": "0x6060604052341561000f57600080fd5b613fac8061001e6000396000f3006060604052600436106100af576000357c0100000000000000000000000000000000000000000000000000000000900463ffffffff168063061e494f146100b457806322af00fa1461016d578063357401f514610255578063517b9ee91461026d5780636c0c27e1146102da57806370f36b25146102f2578063a6afd5fd1461034d578063bed34bba146103b7578063ee97f7f31461046f578063f222d0b9146104c4578063fde07212146104ed575b600080fd5b34156100bf57600080fd5b6100d56004808035906020019091905050610502565b604051808881526020018781526020018681526020018581526020018481526020018373ffffffffffffffffffffffffffffffffffffffff1673ffffffffffffffffffffffffffffffffffffffff1681526020018273ffffffffffffffffffffffffffffffffffffffff1673ffffffffffffffffffffffffffffffffffffffff16815260200197505050505050505060405180910390f35b341561017857600080fd5b61018e6004808035906020019091905050610607565b604051808d81526020018c73ffffffffffffffffffffffffffffffffffffffff1673ffffffffffffffffffffffffffffffffffffffff1681526020018b73ffffffffffffffffffffffffffffffffffffffff1673ffffffffffffffffffffffffffffffffffffffff1681526020018a15151515815260200189815260200188815260200187815260200186815260200185151515158152602001848152602001838152602001821515151581526020019c5050505050505050505050505060405180910390f35b61026b60048080359060200190919050506106ce565b005b6102d8600480803590602001908201803590602001908080601f01602080910402602001604051908101604052809392919081815260200183838082843782019150505050505091908035906020019091908035906020019091908035906020019091905050610869565b005b6102f06004808035906020019091905050610ca7565b005b61034b600480803590602001909190803590602001908201803590602001908080601f01602080910402602001604051908101604052809392919081815260200183838082843782019150505050505091905050610e24565b005b341561035857600080fd5b6103606111cc565b6040518080602001828103825283818151815260200191508051906020019060200280838360005b838110156103a3578082015181840152602081019050610388565b505050509050019250505060405180910390f35b34156103c257600080fd5b610455600480803590602001908201803590602001908080601f0160208091040260200160405190810160405280939291908181526020018383808284378201915050505050509190803590602001908201803590602001908080601f0160208091040260200160405190810160405280939291908181526020018383808284378201915050505050509190505061122a565b604051808215151515815260200191505060405180910390f35b341561047a57600080fd5b610482611303565b604051808273ffffffffffffffffffffffffffffffffffffffff1673ffffffffffffffffffffffffffffffffffffffff16815260200191505060405180910390f35b34156104cf57600080fd5b6104d7611328565b6040518082815260200191505060405180910390f35b34156104f857600080fd5b610500611335565b005b60008060008060008060006003600089815260200190815260200160002060040154600360008a815260200190815260200160002060030154600360008b815260200190815260200160002060050154600360008c815260200190815260200160002060060154600360008d815260200190815260200160002060080154600360008e815260200190815260200160002060010160009054906101000a900473ffffffffffffffffffffffffffffffffffffffff16600360008f815260200190815260200160002060020160009054906101000a900473ffffffffffffffffffffffffffffffffffffffff169650965096509650965096509650919395979092949650565b60036020528060005260406000206000915090508060000154908060010160009054906101000a900473ffffffffffffffffffffffffffffffffffffffff16908060020160009054906101000a900473ffffffffffffffffffffffffffffffffffffffff16908060020160149054906101000a900460ff16908060030154908060040154908060050154908060060154908060070160009054906101000a900460ff169080600801549080600901549080600a0160009054906101000a900460ff1690508c565b3373ffffffffffffffffffffffffffffffffffffffff166003600083815260200190815260200160002060010160009054906101000a900473ffffffffffffffffffffffffffffffffffffffff1673ffffffffffffffffffffffffffffffffffffffff1614151561073e57600080fd5b600015156003600083815260200190815260200160002060020160149054906101000a900460ff16151514151561077457600080fd5b600160036000838152602001908152602001600020600a0160006101000a81548160ff0219169083151502179055507fdac8645f9756d35dfb0622efb2454331f117eb096cea5d489d7a6ae9c7e59af8816040518082815260200191505060405180910390a16003600082815260200190815260200160002060010160009054906101000a900473ffffffffffffffffffffffffffffffffffffffff1673ffffffffffffffffffffffffffffffffffffffff166108fc60036000848152602001908152602001600020600401549081150290604051600060405180830381858888f19350505050151561086657600080fd5b50565b610871613e11565b600061087b613e25565b6000610885613e11565b61088d613e11565b610895613e11565b6000806108a18d61137f565b15156108ac57600080fd5b6000341115156108bb57600080fd5b6108c48d6114e7565b98506108d189606461160d565b809850819950829a50505050610920898860198151811015156108f057fe5b906020019060200201516020015189601981518110151561090d57fe5b90602001906020020151606001516123e3565b94506109658988601b81518110151561093557fe5b906020019060200201516020015189601b81518110151561095257fe5b90602001906020020151606001516123e3565b93506109a6856040805190810160405280600481526020017f6e756c6c0000000000000000000000000000000000000000000000000000000081525061122a565b80156109ed57506109ec846040805190810160405280600481526020017f6e756c6c0000000000000000000000000000000000000000000000000000000081525061122a565b5b15156109f857600080fd5b610a3b89886005815181101515610a0b57fe5b9060200190602002015160200151896005815181101515610a2857fe5b90602001906020020151606001516123e3565b9250610a46836124e6565b91506103e8600160008154809291906001019190505501905060028054806001018281610a739190613e39565b916000526020600020900160008390919091505550610180604051908101604052808281526020013373ffffffffffffffffffffffffffffffffffffffff168152602001600073ffffffffffffffffffffffffffffffffffffffff1681526020016000151581526020018d81526020013481526020018c81526020018b81526020016000151581526020018381526020018d3401815260200160001515815250600360008381526020019081526020016000206000820151816000015560208201518160010160006101000a81548173ffffffffffffffffffffffffffffffffffffffff021916908373ffffffffffffffffffffffffffffffffffffffff16021790555060408201518160020160006101000a81548173ffffffffffffffffffffffffffffffffffffffff021916908373ffffffffffffffffffffffffffffffffffffffff16021790555060608201518160020160146101000a81548160ff0219169083151502179055506080820151816003015560a0820151816004015560c0820151816005015560e082015181600601556101008201518160070160006101000a81548160ff0219169083151502179055506101208201518160080155610140820151816009015561016082015181600a0160006101000a81548160ff0219169083151502179055509050507fdac8645f9756d35dfb0622efb2454331f117eb096cea5d489d7a6ae9c7e59af8816040518082815260200191505060405180910390a150505050505050505050505050565b600360008281526020019081526020016000206003015434148015610ced57506003600082815260200190815260200160002060020160149054906101000a900460ff16155b8015610d5b57506003600082815260200190815260200160002060010160009054906101000a900473ffffffffffffffffffffffffffffffffffffffff1673ffffffffffffffffffffffffffffffffffffffff163373ffffffffffffffffffffffffffffffffffffffff1614155b1515610d6657600080fd5b336003600083815260200190815260200160002060020160006101000a81548173ffffffffffffffffffffffffffffffffffffffff021916908373ffffffffffffffffffffffffffffffffffffffff16021790555060016003600083815260200190815260200160002060020160146101000a81548160ff0219169083151502179055507fdac8645f9756d35dfb0622efb2454331f117eb096cea5d489d7a6ae9c7e59af8816040518082815260200191505060405180910390a150565b610e2c613e11565b6000610e36613e25565b6000610e40613e11565b610e48613e11565b610e50613e11565b6000806000610e5e8b61137f565b1515610e6957600080fd5b610e728b6114e7565b9950610e7f8a606461160d565b809950819a50829b50505050610ece8a896019815181101515610e9e57fe5b90602001906020020151602001518a6019815181101515610ebb57fe5b90602001906020020151606001516123e3565b9550610f138a89601b815181101515610ee357fe5b90602001906020020151602001518a601b815181101515610f0057fe5b90602001906020020151606001516123e3565b9450610f588a896005815181101515610f2857fe5b90602001906020020151602001518a6005815181101515610f4557fe5b90602001906020020151606001516123e3565b9350610f63846124e6565b9250600360008d81526020019081526020016000206008015483141515610f8957600080fd5b610fc8866040805190810160405280600481526020017f6e756c6c0000000000000000000000000000000000000000000000000000000081525061122a565b158015611011575061100f856040805190810160405280600481526020017f6e756c6c0000000000000000000000000000000000000000000000000000000081525061122a565b155b151561101c57600080fd5b611025866124e6565b9150611030856124e6565b90506001600360008e815260200190815260200160002060070160006101000a81548160ff02191690831515021790555081600360008e81526020019081526020016000206005015414801561109b575080600360008e815260200190815260200160002060060154145b1561113157600360008d815260200190815260200160002060010160009054906101000a900473ffffffffffffffffffffffffffffffffffffffff1673ffffffffffffffffffffffffffffffffffffffff166108fc600360008f8152602001908152602001600020600901549081150290604051600060405180830381858888f19350505050151561112c57600080fd5b6111be565b600360008d815260200190815260200160002060020160009054906101000a900473ffffffffffffffffffffffffffffffffffffffff1673ffffffffffffffffffffffffffffffffffffffff166108fc600360008f8152602001908152602001600020600901549081150290604051600060405180830381858888f1935050505015156111bd57600080fd5b5b505050505050505050505050565b6111d4613e65565b600280548060200260200160405190810160405280929190818152602001828054801561122057602002820191906000526020600020905b81548152602001906001019080831161120c575b5050505050905090565b6000816040518082805190602001908083835b602083101515611262578051825260208201915060208101905060208303925061123d565b6001836020036101000a038019825116818451168082178552505050505050905001915050604051809103902060001916836040518082805190602001908083835b6020831015156112c957805182526020820191506020810190506020830392506112a4565b6001836020036101000a03801982511681845116808217855250505050505090500191505060405180910390206000191614905092915050565b6000809054906101000a900473ffffffffffffffffffffffffffffffffffffffff1681565b6000600280549050905090565b336000806101000a81548173ffffffffffffffffffffffffffffffffffffffff021916908373ffffffffffffffffffffffffffffffffffffffff1602179055506000600181905550565b60008060007fe0a5793d275a533d50421b201c2c9a909abb58b1a9c0f9eb9b7963e5c8bc229591507ff34d47cb92b6474562675127677d4e446418498884c101aeb38f3afb0cab997e905073__tlsnutils_____________________________635569909f8584846000604051602001526040518463ffffffff167c01000000000000000000000000000000000000000000000000000000000281526004018080602001848152602001838152602001828103825285818151815260200191508051906020019080838360005b8381101561146757808201518184015260208101905061144c565b50505050905090810190601f1680156114945780820380516001836020036101000a031916815260200191505b5094505050505060206040518083038186803b15156114b257600080fd5b6102c65a03f415156114c357600080fd5b50505060405180519050156114db57600192506114e0565b600092505b5050919050565b6114ef613e79565b6114f7613e79565b6114ff613e8d565b611507613e8d565b611510856124fa565b925061152e600f61152085612536565b61256490919063ffffffff16565b91506115806115716040805190810160405280600f81526020017f485454502f312e3120323030204f4b0000000000000000000000000000000000815250612536565b8361258c90919063ffffffff16565b151561158b57600080fd5b6115e36115cc6040805190810160405280600481526020017f0d0a0d0a00000000000000000000000000000000000000000000000000000000815250612536565b6115d585612536565b6125a290919063ffffffff16565b90506115f96004826125f490919063ffffffff16565b506116038161264a565b9350505050919050565b6000611617613e25565b6000611621613e79565b611629613ea7565b611631613e25565b6000806000806000611641613ec9565b6000808f9a506116508f6126a8565b99509950896020015196505b8a518a6000015110156123c2578a8a6000015181518110151561167b57fe5b9060200101517f010000000000000000000000000000000000000000000000000000000000000090047f0100000000000000000000000000000000000000000000000000000000000000029450607b7f010000000000000000000000000000000000000000000000000000000000000002857effffffffffffffffffffffffffffffffffffffffffffffffffffffffffffff1916148061175f5750605b7f010000000000000000000000000000000000000000000000000000000000000002857effffffffffffffffffffffffffffffffffffffffffffffffffffffffffffff1916145b1561189f5786806001019750506117768a8a61275c565b935093508315156117945760038960008090509d509d509d506123d1565b7fffffffffffffffffffffffffffffffffffffffffffffffffffffffffffffffff8a604001511415156117f357888a604001518151811015156117d357fe5b9060200190602002015160a001805180919060010160ff1660ff16815250505b607b7f010000000000000000000000000000000000000000000000000000000000000002857effffffffffffffffffffffffffffffffffffffffffffffffffffffffffffff191614611846576002611849565b60015b8360000190600481111561185957fe5b9081600481111561186657fe5b815250508960000151836020018181525050600183604001901515908115158152505060018a60200151038a60400181815250506123ad565b607d7f010000000000000000000000000000000000000000000000000000000000000002857effffffffffffffffffffffffffffffffffffffffffffffffffffffffffffff191614806119365750605d7f010000000000000000000000000000000000000000000000000000000000000002857effffffffffffffffffffffffffffffffffffffffffffffffffffffffffffff1916145b15611b7657607d7f010000000000000000000000000000000000000000000000000000000000000002857effffffffffffffffffffffffffffffffffffffffffffffffffffffffffffff19161461198e576002611991565b60015b91506000905060018a602001510395505b600086101515611aa55788868151811015156119ba57fe5b906020019060200201519250826040015180156119d957508260800151155b15611a97578160048111156119ea57fe5b836000015160048111156119fa57fe5b141515611a145760018960008090509d509d509d506123d1565b7fffffffffffffffffffffffffffffffffffffffffffffffffffffffffffffffff8a604001818152505060018a60000151018987815181101515611a5457fe5b90602001906020020151606001818152505060018987815181101515611a7657fe5b90602001906020020151608001901515908115158152505060019050611aa5565b8580600190039650506119a2565b801515611abf5760018960008090509d509d509d506123d1565b5b6000861115611b18578886815181101515611ad757fe5b90602001906020020151925082604001518015611af657508260800151155b15611b0a57858a6040018181525050611b18565b858060019003965050611ac0565b6000861415611b71578886815181101515611b2f57fe5b90602001906020020151925082604001518015611b4e57508260800151155b15611b7057856fffffffffffffffffffffffffffffffff168a60400181815250505b5b6123ad565b7f2200000000000000000000000000000000000000000000000000000000000000857effffffffffffffffffffffffffffffffffffffffffffffffffffffffffffff19161415611c5557611bcb8a8a8d61282e565b9750600088141515611be957878960008090509d509d509d506123d1565b86806001019750507fffffffffffffffffffffffffffffffffffffffffffffffffffffffffffffffff8a60400151141515611c5057888a60400151815181101515611c3057fe5b9060200190602002015160a001805180919060010160ff1660ff16815250505b6123ad565b7f2000000000000000000000000000000000000000000000000000000000000000857effffffffffffffffffffffffffffffffffffffffffffffffffffffffffffff19161480611ce9575060117f010000000000000000000000000000000000000000000000000000000000000002857effffffffffffffffffffffffffffffffffffffffffffffffffffffffffffff1916145b80611d38575060127f010000000000000000000000000000000000000000000000000000000000000002857effffffffffffffffffffffffffffffffffffffffffffffffffffffffffffff1916145b80611d87575060147f010000000000000000000000000000000000000000000000000000000000000002857effffffffffffffffffffffffffffffffffffffffffffffffffffffffffffff1916145b15611d91576123ad565b7f3a00000000000000000000000000000000000000000000000000000000000000857effffffffffffffffffffffffffffffffffffffffffffffffffffffffffffff19161415611df15760018a60200151038a60400181815250506123ad565b7f2c00000000000000000000000000000000000000000000000000000000000000857effffffffffffffffffffffffffffffffffffffffffffffffffffffffffffff19161415611fe1577fffffffffffffffffffffffffffffffffffffffffffffffffffffffffffffffff8a6040015114158015611ea5575060026004811115611e7757fe5b898b60400151815181101515611e8957fe5b90602001906020020151600001516004811115611ea257fe5b14155b8015611ee7575060016004811115611eb957fe5b898b60400151815181101515611ecb57fe5b90602001906020020151600001516004811115611ee457fe5b14155b15611fdc5760018a602001510395505b600086101515611fdb5760026004811115611f0e57fe5b8987815181101515611f1c57fe5b90602001906020020151600001516004811115611f3557fe5b1480611f72575060016004811115611f4957fe5b8987815181101515611f5757fe5b90602001906020020151600001516004811115611f7057fe5b145b15611fcd578886815181101515611f8557fe5b90602001906020020151604001518015611fb857508886815181101515611fa857fe5b9060200190602002015160800151155b15611fcc57858a6040018181525050611fdb565b5b858060019003965050611ef7565b5b6123ad565b7f3000000000000000000000000000000000000000000000000000000000000000857effffffffffffffffffffffffffffffffffffffffffffffffffffffffffffff19161015801561207557507f3900000000000000000000000000000000000000000000000000000000000000857effffffffffffffffffffffffffffffffffffffffffffffffffffffffffffff191611155b806120c157507f2d00000000000000000000000000000000000000000000000000000000000000857effffffffffffffffffffffffffffffffffffffffffffffffffffffffffffff1916145b8061210d57507f6600000000000000000000000000000000000000000000000000000000000000857effffffffffffffffffffffffffffffffffffffffffffffffffffffffffffff1916145b8061215957507f7400000000000000000000000000000000000000000000000000000000000000857effffffffffffffffffffffffffffffffffffffffffffffffffffffffffffff1916145b806121a557507f6e00000000000000000000000000000000000000000000000000000000000000857effffffffffffffffffffffffffffffffffffffffffffffffffffffffffffff1916145b156122fa577fffffffffffffffffffffffffffffffffffffffffffffffffffffffffffffffff8a6040015114151561226557888a604001518151811015156121e957fe5b9060200190602002015192506001600481111561220257fe5b8360000151600481111561221257fe5b148061224c57506003600481111561222657fe5b8360000151600481111561223657fe5b14801561224b575060008360a0015160ff1614155b5b156122645760018960008090509d509d509d506123d1565b5b6122708a8a8d612f45565b975060008814151561228e57878960008090509d509d509d506123d1565b86806001019750507fffffffffffffffffffffffffffffffffffffffffffffffffffffffffffffffff8a604001511415156122f557888a604001518151811015156122d557fe5b9060200190602002015160a001805180919060010160ff1660ff16815250505b6123ad565b60207f010000000000000000000000000000000000000000000000000000000000000002857effffffffffffffffffffffffffffffffffffffffffffffffffffffffffffff1916101580156123945750607e7f010000000000000000000000000000000000000000000000000000000000000002857effffffffffffffffffffffffffffffffffffffffffffffffffffffffffffff191611155b156123ac5760018960008090509d509d509d506123d1565b5b8960000180518091906001018152505061165c565b6000898b602001519d509d509d505b50505050505050505050509250925092565b6123eb613e11565b6123f3613e79565b6123fb613e79565b60008692508585036040518059106124105750595b9080825280601f01601f191660200182016040525091508590505b848110156124d957828181518110151561244157fe5b9060200101517f010000000000000000000000000000000000000000000000000000000000000090047f0100000000000000000000000000000000000000000000000000000000000000028287830381518110151561249c57fe5b9060200101907effffffffffffffffffffffffffffffffffffffffffffffffffffffffffffff1916908160001a905350808060010191505061242b565b8193505050509392505050565b60006124f3826000613327565b9050919050565b612502613e79565b61252f8260017f010000000000000000000000000000000000000000000000000000000000000002613706565b9050919050565b61253e613e8d565b600060208301905060408051908101604052808451815260200182815250915050919050565b61256c613e8d565b818360000151111561258357818360000181815250505b82905092915050565b6000806125998484613b33565b14905092915050565b6125aa613e8d565b60006125c88460000151856020015185600001518660200151613bed565b905083602001518103846000018181510391508181525050808460200181815250508391505092915050565b6125fc613e8d565b82600001518263ffffffff161115151561261557600080fd5b8163ffffffff168360200181815101915081815250508163ffffffff1683600001818151039150818152505082905092915050565b612652613e79565b61265a613e79565b6000836000015160405180591061266e5750595b9080825280601f01601f1916602001820160405250915060208201905061269e8185602001518660000151613ca9565b8192505050919050565b6126b0613ea7565b6126b8613e25565b6126c0613ea7565b6126c8613e25565b60606040519081016040528060008152602001600081526020017fffffffffffffffffffffffffffffffffffffffffffffffffffffffffffffffff8152509150846040518059106127165750595b90808252806020026020018201604052801561274c57816020015b612739613f12565b8152602001906001900390816127315790505b5090508181935093505050915091565b6000612766613ec9565b61276e613ec9565b835185602001511015156127a657600084600186510381518110151561279057fe5b9060200190602002015180905092509250612826565b60c060405190810160405280600060048111156127bf57fe5b81526020016000815260200160001515815260200160008152602001600015158152602001600060ff1681525090508084866020015181518110151561280157fe5b9060200190602002018190525084602001805180919060010181525050600181925092505b509250929050565b60008060008061283c613ec9565b87600001519350876000018051809190600101815250505b855188600001511015612f2b5785886000015181518110151561287357fe5b9060200101517f010000000000000000000000000000000000000000000000000000000000000090047f01000000000000000000000000000000000000000000000000000000000000000292507f2200000000000000000000000000000000000000000000000000000000000000837effffffffffffffffffffffffffffffffffffffffffffffffffffffffffffff1916141561294f57612914888861275c565b91509150811515612932578388600001818152505060039450612f3a565b612946816003600187018b60000151613cf4565b60009450612f3a565b605c7f010000000000000000000000000000000000000000000000000000000000000002837effffffffffffffffffffffffffffffffffffffffffffffffffffffffffffff19161480156129aa575085516001896000015101105b15612f1557876000018051809190600101815250507f22000000000000000000000000000000000000000000000000000000000000008689600001518151811015156129f257fe5b9060200101517f010000000000000000000000000000000000000000000000000000000000000090047f0100000000000000000000000000000000000000000000000000000000000000027effffffffffffffffffffffffffffffffffffffffffffffffffffffffffffff19161480612b0857507f2f00000000000000000000000000000000000000000000000000000000000000868960000151815181101515612a9957fe5b9060200101517f010000000000000000000000000000000000000000000000000000000000000090047f0100000000000000000000000000000000000000000000000000000000000000027effffffffffffffffffffffffffffffffffffffffffffffffffffffffffffff1916145b80612bb057507f5c00000000000000000000000000000000000000000000000000000000000000868960000151815181101515612b4157fe5b9060200101517f010000000000000000000000000000000000000000000000000000000000000090047f0100000000000000000000000000000000000000000000000000000000000000027effffffffffffffffffffffffffffffffffffffffffffffffffffffffffffff1916145b80612c5857507f6600000000000000000000000000000000000000000000000000000000000000868960000151815181101515612be957fe5b9060200101517f010000000000000000000000000000000000000000000000000000000000000090047f0100000000000000000000000000000000000000000000000000000000000000027effffffffffffffffffffffffffffffffffffffffffffffffffffffffffffff1916145b80612d0057507f7200000000000000000000000000000000000000000000000000000000000000868960000151815181101515612c9157fe5b9060200101517f010000000000000000000000000000000000000000000000000000000000000090047f0100000000000000000000000000000000000000000000000000000000000000027effffffffffffffffffffffffffffffffffffffffffffffffffffffffffffff1916145b80612da857507f6e00000000000000000000000000000000000000000000000000000000000000868960000151815181101515612d3957fe5b9060200101517f010000000000000000000000000000000000000000000000000000000000000090047f0100000000000000000000000000000000000000000000000000000000000000027effffffffffffffffffffffffffffffffffffffffffffffffffffffffffffff1916145b80612e5057507f6200000000000000000000000000000000000000000000000000000000000000868960000151815181101515612de157fe5b9060200101517f010000000000000000000000000000000000000000000000000000000000000090047f0100000000000000000000000000000000000000000000000000000000000000027effffffffffffffffffffffffffffffffffffffffffffffffffffffffffffff1916145b80612ef857507f7400000000000000000000000000000000000000000000000000000000000000868960000151815181101515612e8957fe5b9060200101517f010000000000000000000000000000000000000000000000000000000000000090047f0100000000000000000000000000000000000000000000000000000000000000027effffffffffffffffffffffffffffffffffffffffffffffffffffffffffffff1916145b15612f0257612f16565b8388600001818152505060019450612f3a565b5b87600001805180919060010181525050612854565b83886000018181525050600294505b505050509392505050565b6000806000806000612f55613ec9565b60009450886000015193505b8651896000015110156132b257868960000151815181101515612f8057fe5b9060200101517f010000000000000000000000000000000000000000000000000000000000000090047f01000000000000000000000000000000000000000000000000000000000000000292507f2000000000000000000000000000000000000000000000000000000000000000837effffffffffffffffffffffffffffffffffffffffffffffffffffffffffffff1916148061305e57507f0900000000000000000000000000000000000000000000000000000000000000837effffffffffffffffffffffffffffffffffffffffffffffffffffffffffffff1916145b806130aa57507f0a00000000000000000000000000000000000000000000000000000000000000837effffffffffffffffffffffffffffffffffffffffffffffffffffffffffffff1916145b806130f657507f0d00000000000000000000000000000000000000000000000000000000000000837effffffffffffffffffffffffffffffffffffffffffffffffffffffffffffff1916145b8061314257507f2c00000000000000000000000000000000000000000000000000000000000000837effffffffffffffffffffffffffffffffffffffffffffffffffffffffffffff1916145b806131915750607d7f010000000000000000000000000000000000000000000000000000000000000002837effffffffffffffffffffffffffffffffffffffffffffffffffffffffffffff1916145b806131e05750605d7f010000000000000000000000000000000000000000000000000000000000000002837effffffffffffffffffffffffffffffffffffffffffffffffffffffffffffff1916145b156131ee57600194506132b2565b60207f010000000000000000000000000000000000000000000000000000000000000002837effffffffffffffffffffffffffffffffffffffffffffffffffffffffffffff191610806132855750607f7f010000000000000000000000000000000000000000000000000000000000000002837effffffffffffffffffffffffffffffffffffffffffffffffffffffffffffff1916115b1561329d57838960000181815250506001955061331b565b88600001805180919060010181525050612f61565b8415156132cc57838960000181815250506002955061331b565b6132d6898961275c565b915091508115156132f457838960000181815250506003955061331b565b613305816004868c60000151613cf4565b8860000180518091906001900381525050600095505b50505050509392505050565b6000613331613e79565b600080600080879450600093506000925060009150600090505b84518110156136ba576000811480156133fd57507f2d00000000000000000000000000000000000000000000000000000000000000858281518110151561338e57fe5b9060200101517f010000000000000000000000000000000000000000000000000000000000000090047f0100000000000000000000000000000000000000000000000000000000000000027effffffffffffffffffffffffffffffffffffffffffffffffffffffffffffff1916145b1561340757600191505b60307f010000000000000000000000000000000000000000000000000000000000000002858281518110151561343957fe5b9060200101517f010000000000000000000000000000000000000000000000000000000000000090047f0100000000000000000000000000000000000000000000000000000000000000027effffffffffffffffffffffffffffffffffffffffffffffffffffffffffffff191610158015613551575060397f01000000000000000000000000000000000000000000000000000000000000000285828151811015156134e157fe5b9060200101517f010000000000000000000000000000000000000000000000000000000000000090047f0100000000000000000000000000000000000000000000000000000000000000027effffffffffffffffffffffffffffffffffffffffffffffffffffffffffffff191611155b1561360257821561357457600087141561356a576136ba565b8680600190039750505b600a840293506030858281518110151561358a57fe5b9060200101517f010000000000000000000000000000000000000000000000000000000000000090047f0100000000000000000000000000000000000000000000000000000000000000027f0100000000000000000000000000000000000000000000000000000000000000900403840193506136ad565b602e7f010000000000000000000000000000000000000000000000000000000000000002858281518110151561363457fe5b9060200101517f010000000000000000000000000000000000000000000000000000000000000090047f0100000000000000000000000000000000000000000000000000000000000000027effffffffffffffffffffffffffffffffffffffffffffffffffffffffffffff191614156136ac57600192505b5b808060010191505061334b565b60008711156136cc5786600a0a840293505b81156136f8577fffffffffffffffffffffffffffffffffffffffffffffffffffffffffffffffff840293505b839550505050505092915050565b61370e613e79565b613716613e79565b6000806000806000613726613e8d565b602060405190810160405280600081525096506060955089601b81518110151561374c57fe5b9060200101517f010000000000000000000000000000000000000000000000000000000000000090047f0100000000000000000000000000000000000000000000000000000000000000027f01000000000000000000000000000000000000000000000000000000000000009004610100028a601a8151811015156137cd57fe5b9060200101517f010000000000000000000000000000000000000000000000000000000000000090047f0100000000000000000000000000000000000000000000000000000000000000027f010000000000000000000000000000000000000000000000000000000000000090040186019550600093505b89600781518110151561385457fe5b9060200101517f010000000000000000000000000000000000000000000000000000000000000090047f0100000000000000000000000000000000000000000000000000000000000000027f01000000000000000000000000000000000000000000000000000000000000009004610100028a60068151811015156138d557fe5b9060200101517f010000000000000000000000000000000000000000000000000000000000000090047f0100000000000000000000000000000000000000000000000000000000000000027f010000000000000000000000000000000000000000000000000000000000000090040161ffff168461ffff161015613b2357602186018a0151925082600160028110151561396b57fe5b1a7f0100000000000000000000000000000000000000000000000000000000000000027f01000000000000000000000000000000000000000000000000000000000000009004610100028360006002811015156139c457fe5b1a7f0100000000000000000000000000000000000000000000000000000000000000027f01000000000000000000000000000000000000000000000000000000000000009004019150896003870161ffff16815181101515613a2257fe5b9060200101517f010000000000000000000000000000000000000000000000000000000000000090047f0100000000000000000000000000000000000000000000000000000000000000029450600486019550887effffffffffffffffffffffffffffffffffffffffffffffffffffffffffffff1916857effffffffffffffffffffffffffffffffffffffffffffffffffffffffffffff19161415613b0e57613aee8261ffff16613ae08861ffff168d613d6590919063ffffffff16565b61256490919063ffffffff16565b9050613b0b81613afd89612536565b613d9390919063ffffffff16565b96505b60108201860195508380600101945050613845565b8697505050505050505092915050565b60008060008060008060008060008a6000015197508a600001518a600001511015613b6057896000015197505b8a60200151965089602001519550600094505b87851015613bd15786519350855192508284141515613bba57600185896020030160080260020a03199150818316828516039050600081141515613bb957809850613bdf565b5b602087019650602086019550602085019450613b73565b89600001518b600001510398505b505050505050505092915050565b60008060008060008887111515613c9757602087111515613c4e5760018760200360080260020a031980875116888b038a018a96505b818388511614613c4357600187019650806001880310613c23578b8b0196505b505050839450613c9d565b8686209150879350600092505b86890383111515613c96578684209050806000191682600019161415613c8357839450613c9d565b6001840193508280600101935050613c5b565b5b88880194505b50505050949350505050565b60005b602082101515613cd15782518452602084019350602083019250602082039150613cac565b6001826020036101000a0390508019835116818551168181178652505050505050565b8284600001906004811115613d0557fe5b90816004811115613d1257fe5b8152505081846020018181525050600184604001901515908115158152505080846060018181525050600184608001901515908115158152505060008460a0019060ff16908160ff168152505050505050565b613d6d613e8d565b613d75613e8d565b613d7e84612536565b9050613d8a81846125f4565b91505092915050565b613d9b613e79565b613da3613e79565b60008360000151856000015101604051805910613dbd5750595b9080825280601f01601f19166020018201604052509150602082019050613ded8186602001518760000151613ca9565b613e068560000151820185602001518660000151613ca9565b819250505092915050565b602060405190810160405280600081525090565b602060405190810160405280600081525090565b815481835581811511613e6057818360005260206000209182019101613e5f9190613f5b565b5b505050565b602060405190810160405280600081525090565b602060405190810160405280600081525090565b604080519081016040528060008152602001600081525090565b6060604051908101604052806000815260200160008152602001600081525090565b60c06040519081016040528060006004811115613ee257fe5b81526020016000815260200160001515815260200160008152602001600015158152602001600060ff1681525090565b60c06040519081016040528060006004811115613f2b57fe5b81526020016000815260200160001515815260200160008152602001600015158152602001600060ff1681525090565b613f7d91905b80821115613f79576000816000905550600101613f61565b5090565b905600a165627a7a723058202bc41f4c7556cc21e1cd5bbdcc80c7318356b418d8938b418c55346d1703900c0029",
  "source": "pragma solidity ^0.4.15;\n\nlibrary JsmnSolLib {\n\n    enum JsmnType { UNDEFINED, OBJECT, ARRAY, STRING, PRIMITIVE }\n\n    uint constant RETURN_SUCCESS = 0;\n    uint constant RETURN_ERROR_INVALID_JSON = 1;\n    uint constant RETURN_ERROR_PART = 2;\n    uint constant RETURN_ERROR_NO_MEM = 3;\n\n    struct Token {\n        JsmnType jsmnType;\n        uint start;\n        bool startSet;\n        uint end;\n        bool endSet;\n        uint8 size;\n    }\n\n    struct Parser {\n        uint pos;\n        uint toknext;\n        int toksuper;\n    }\n\n    function init(uint length) internal returns (Parser, Token[]) {\n        Parser memory p = Parser(0, 0, -1);\n        Token[] memory t = new Token[](length);\n        return (p, t);\n    }\n\n    function allocateToken(Parser parser, Token[] tokens) internal returns (bool, Token) {\n        if (parser.toknext >= tokens.length) {\n            // no more space in tokens\n            return (false, tokens[tokens.length-1]);\n        }\n        Token memory token = Token(JsmnType.UNDEFINED, 0, false, 0, false, 0);\n        tokens[parser.toknext] = token;\n        parser.toknext++;\n        return (true, token);\n    }\n\n    function fillToken(Token token, JsmnType jsmnType, uint start, uint end) internal {\n        token.jsmnType = jsmnType;\n        token.start = start;\n        token.startSet = true;\n        token.end = end;\n        token.endSet = true;\n        token.size = 0;\n    }\n\n    function parseString(Parser parser, Token[] tokens, bytes s) internal returns (uint) {\n        uint start = parser.pos;\n        parser.pos++;\n\n        for (; parser.pos<s.length; parser.pos++) {\n            bytes1 c = s[parser.pos];\n\n            // Quote -> end of string\n            if (c == '\"') {\n                var (success, token) = allocateToken(parser, tokens);\n                if (!success) {\n                    parser.pos = start;\n                    return RETURN_ERROR_NO_MEM;\n                }\n                fillToken(token, JsmnType.STRING, start+1, parser.pos);\n                return RETURN_SUCCESS;\n            }\n\n            if (c == 92 && parser.pos + 1 < s.length) {\n                // handle escaped characters: skip over it\n                parser.pos++;\n                if (s[parser.pos] == '\\\"' || s[parser.pos] == '/' || s[parser.pos] == '\\\\'\n                    || s[parser.pos] == 'f' || s[parser.pos] == 'r' || s[parser.pos] == 'n'\n                    || s[parser.pos] == 'b' || s[parser.pos] == 't') {\n                        continue;\n                        } else {\n                            // all other values are INVALID\n                            parser.pos = start;\n                            return(RETURN_ERROR_INVALID_JSON);\n                        }\n                    }\n            }\n        parser.pos = start;\n        return RETURN_ERROR_PART;\n    }\n\n    function parsePrimitive(Parser parser, Token[] tokens, bytes s) internal returns (uint) {\n        bool found = false;\n        uint start = parser.pos;\n        byte c;\n        for (; parser.pos < s.length; parser.pos++) {\n            c = s[parser.pos];\n            if (c == ' ' || c == '\\t' || c == '\\n' || c == '\\r' || c == ','\n                || c == 0x7d || c == 0x5d) {\n                    found = true;\n                    break;\n            }\n            if (c < 32 || c > 127) {\n                parser.pos = start;\n                return RETURN_ERROR_INVALID_JSON;\n            }\n        }\n        if (!found) {\n            parser.pos = start;\n            return RETURN_ERROR_PART;\n        }\n\n        // found the end\n        var (success, token) = allocateToken(parser, tokens);\n        if (!success) {\n            parser.pos = start;\n            return RETURN_ERROR_NO_MEM;\n        }\n        fillToken(token, JsmnType.PRIMITIVE, start, parser.pos);\n        parser.pos--;\n        return RETURN_SUCCESS;\n    }\n\n    function parse(string json, uint numberElements) internal returns (uint, Token[], uint) {\n        bytes memory s = bytes(json);\n        var (parser, tokens) = init(numberElements);\n\n        // Token memory token;\n        uint r;\n        uint count = parser.toknext;\n        uint i;\n\n        for (; parser.pos<s.length; parser.pos++) {\n            bytes1 c = s[parser.pos];\n\n            // 0x7b, 0x5b opening curly parentheses or brackets\n            if (c == 0x7b || c == 0x5b) {\n                count++;\n                var (success, token)= allocateToken(parser, tokens);\n                if (!success) {\n                    return (RETURN_ERROR_NO_MEM, tokens, 0);\n                }\n                if (parser.toksuper != -1) {\n                    tokens[uint(parser.toksuper)].size++;\n                }\n                token.jsmnType = (c == 0x7b ? JsmnType.OBJECT : JsmnType.ARRAY);\n                token.start = parser.pos;\n                token.startSet = true;\n                parser.toksuper = int(parser.toknext - 1);\n                continue;\n            }\n\n            // closing curly parentheses or brackets\n            if (c == 0x7d || c == 0x5d) {\n                JsmnType tokenType = (c == 0x7d ? JsmnType.OBJECT : JsmnType.ARRAY);\n                bool isUpdated = false;\n                for (i=parser.toknext-1; i>=0; i--) {\n                    token = tokens[i];\n                    if (token.startSet && !token.endSet) {\n                        if (token.jsmnType != tokenType) {\n                            // found a token that hasn't been closed but from a different type\n                            return (RETURN_ERROR_INVALID_JSON, tokens, 0);\n                        }\n                        parser.toksuper = -1;\n                        tokens[i].end = parser.pos + 1;\n                        tokens[i].endSet = true;\n                        isUpdated = true;\n                        break;\n                    }\n                }\n                if (!isUpdated) {\n                    return (RETURN_ERROR_INVALID_JSON, tokens, 0);\n                }\n                for (; i>0; i--) {\n                    token = tokens[i];\n                    if (token.startSet && !token.endSet) {\n                        parser.toksuper = int(i);\n                        break;\n                    }\n                }\n\n                if (i==0) {\n                    token = tokens[i];\n                    if (token.startSet && !token.endSet) {\n                        parser.toksuper = uint128(i);\n                    }\n                }\n                continue;\n            }\n\n            // 0x42\n            if (c == '\"') {\n                r = parseString(parser, tokens, s);\n\n                if (r != RETURN_SUCCESS) {\n                    return (r, tokens, 0);\n                }\n                //JsmnError.INVALID;\n                count++;\n\t\t\t\tif (parser.toksuper != -1)\n\t\t\t\t\ttokens[uint(parser.toksuper)].size++;\n                continue;\n            }\n\n            // ' ', \\r, \\t, \\n\n            if (c == ' ' || c == 0x11 || c == 0x12 || c == 0x14) {\n                continue;\n            }\n\n            // 0x3a\n            if (c == ':') {\n                parser.toksuper = int(parser.toknext -1);\n                continue;\n            }\n\n            if (c == ',') {\n                if (parser.toksuper != -1\n                    && tokens[uint(parser.toksuper)].jsmnType != JsmnType.ARRAY\n                    && tokens[uint(parser.toksuper)].jsmnType != JsmnType.OBJECT) {\n                        for(i = parser.toknext-1; i>=0; i--) {\n                            if (tokens[i].jsmnType == JsmnType.ARRAY || tokens[i].jsmnType == JsmnType.OBJECT) {\n                                if (tokens[i].startSet && !tokens[i].endSet) {\n                                    parser.toksuper = int(i);\n                                    break;\n                                }\n                            }\n                        }\n                    }\n                continue;\n            }\n\n            // Primitive\n            if ((c >= '0' && c <= '9') || c == '-' || c == 'f' || c == 't' || c == 'n') {\n                if (parser.toksuper != -1) {\n                    token = tokens[uint(parser.toksuper)];\n                    if (token.jsmnType == JsmnType.OBJECT\n                        || (token.jsmnType == JsmnType.STRING && token.size != 0)) {\n                            return (RETURN_ERROR_INVALID_JSON, tokens, 0);\n                        }\n                }\n\n                r = parsePrimitive(parser, tokens, s);\n                if (r != RETURN_SUCCESS) {\n                    return (r, tokens, 0);\n                }\n                count++;\n                if (parser.toksuper != -1) {\n                    tokens[uint(parser.toksuper)].size++;\n                }\n                continue;\n            }\n\n            // printable char\n            if (c >= 0x20 && c <= 0x7e) {\n                return (RETURN_ERROR_INVALID_JSON, tokens, 0);\n            }\n        }\n\n        return (RETURN_SUCCESS, tokens, parser.toknext);\n    }\n\n    function getBytes(string json, uint start, uint end) internal returns (string) {\n        bytes memory s = bytes(json);\n        bytes memory result = new bytes(end-start);\n        for (uint i=start; i<end; i++) {\n            result[i-start] = s[i];\n        }\n        return string(result);\n    }\n\n    // parseInt\n    function parseInt(string _a) internal returns (int) {\n        return parseInt(_a, 0);\n    }\n\n    // parseInt(parseFloat*10^_b)\n    function parseInt(string _a, uint _b) internal returns (int) {\n        bytes memory bresult = bytes(_a);\n        int mint = 0;\n        bool decimals = false;\n        bool negative = false;\n        for (uint i=0; i<bresult.length; i++){\n            if ((i == 0) && (bresult[i] == '-')) {\n                negative = true;\n            }\n            if ((bresult[i] >= 48) && (bresult[i] <= 57)) {\n                if (decimals){\n                   if (_b == 0) break;\n                    else _b--;\n                }\n                mint *= 10;\n                mint += int(bresult[i]) - 48;\n            } else if (bresult[i] == 46) decimals = true;\n        }\n        if (_b > 0) mint *= int(10**_b);\n        if (negative) mint *= -1;\n        return mint;\n    }\n\n    function uint2str(uint i) internal returns (string){\n        if (i == 0) return \"0\";\n        uint j = i;\n        uint len;\n        while (j != 0){\n            len++;\n            j /= 10;\n        }\n        bytes memory bstr = new bytes(len);\n        uint k = len - 1;\n        while (i != 0){\n            bstr[k--] = byte(48 + i % 10);\n            i /= 10;\n        }\n        return string(bstr);\n    }\n\n    function parseBool(string _a) returns (bool) {\n        if (strCompare(_a, 'true') == 0) {\n            return true;\n        } else {\n            return false;\n        }\n    }\n\n    function strCompare(string _a, string _b) internal returns (int) {\n        bytes memory a = bytes(_a);\n        bytes memory b = bytes(_b);\n        uint minLength = a.length;\n        if (b.length < minLength) minLength = b.length;\n        for (uint i = 0; i < minLength; i ++)\n            if (a[i] < b[i])\n                return -1;\n            else if (a[i] > b[i])\n                return 1;\n        if (a.length < b.length)\n            return -1;\n        else if (a.length > b.length)\n            return 1;\n        else\n            return 0;\n    }\n\n}\n\nlibrary bytesutils {\n    struct slice {\n        uint _len;\n        uint _ptr;\n    }\n\n    function memcpy(uint dest, uint src, uint len) private {\n        // Copy word-length chunks while possible\n        for(; len >= 32; len -= 32) {\n            assembly {\n                mstore(dest, mload(src))\n            }\n            dest += 32;\n            src += 32;\n        }\n\n        // Copy remaining bytes\n        uint mask = 256 ** (32 - len) - 1;\n        assembly {\n            let srcpart := and(mload(src), not(mask))\n            let destpart := and(mload(dest), mask)\n            mstore(dest, or(destpart, srcpart))\n        }\n    }\n\n    /*\n     * @dev Returns a slice containing the entire bytes.\n     * @param self The bytes to make a slice from.\n     * @return A newly allocated slice containing the entire bytes.\n     */\n    function toSlice(bytes self) internal returns (slice) {\n        uint ptr;\n        assembly {\n            ptr := add(self, 0x20)\n        }\n        return slice(self.length, ptr);\n    }\n\n    function addOffset(slice self, uint32 offset) internal returns (slice) {\n        require(offset <= self._len);\n        self._ptr += offset;\n        self._len -= offset;\n        return self;\n    }\n\n    /*\n     * @dev Returns a slice containing the entire bytes.\n     * @param self The bytes to make a slice from.\n     * @param offset The offset within the bytestring.\n     * @return A newly allocated slice containing the entire bytes.\n     */\n    function toSlice(bytes self, uint32 offset) internal returns (slice) {\n        slice memory ret = toSlice(self);\n        return addOffset(ret, offset);\n    }\n\n\n    /*\n     * @dev Returns the length of a null-terminated bytes32 string.\n     * @param self The value to find the length of.\n     * @return The length of the string, from 0 to 32.\n     */\n    function len(bytes32 self) internal returns (uint) {\n        uint ret;\n        if (self == 0)\n            return 0;\n        if (self & 0xffffffffffffffffffffffffffffffff == 0) {\n            ret += 16;\n            self = bytes32(uint(self) / 0x100000000000000000000000000000000);\n        }\n        if (self & 0xffffffffffffffff == 0) {\n            ret += 8;\n            self = bytes32(uint(self) / 0x10000000000000000);\n        }\n        if (self & 0xffffffff == 0) {\n            ret += 4;\n            self = bytes32(uint(self) / 0x100000000);\n        }\n        if (self & 0xffff == 0) {\n            ret += 2;\n            self = bytes32(uint(self) / 0x10000);\n        }\n        if (self & 0xff == 0) {\n            ret += 1;\n        }\n        return 32 - ret;\n    }\n\n    /*\n     * @dev Returns a slice containing the entire bytes32, interpreted as a\n     *      null-termintaed utf-8 string.\n     * @param self The bytes32 value to convert to a slice.\n     * @return A new slice containing the value of the input argument up to the\n     *         first null.\n     */\n    function toSliceB32(bytes32 self) internal returns (slice ret) {\n        // Allocate space for `self` in memory, copy it there, and point ret at it\n        assembly {\n            let ptr := mload(0x40)\n            mstore(0x40, add(ptr, 0x20))\n            mstore(ptr, self)\n            mstore(add(ret, 0x20), ptr)\n        }\n        ret._len = len(self);\n    }\n\n    /*\n     * @dev Returns a new slice containing the same data as the current slice.\n     * @param self The slice to copy.\n     * @return A new slice containing the same data as `self`.\n     */\n    function copy(slice self) internal returns (slice) {\n        return slice(self._len, self._ptr);\n    }\n\n    /*\n     * @dev Copies a slice to a new bytestring.\n     * @param self The slice to copy.\n     * @return A newly allocated bytestring containing the slice's text.\n     */\n    function toBytes(slice self) internal returns (bytes) {\n        var ret = new bytes(self._len);\n        uint retptr;\n        assembly { retptr := add(ret, 32) }\n\n        memcpy(retptr, self._ptr, self._len);\n        return ret;\n    }\n\n\n    /*\n     * @dev Copies a slice to a new string.\n     * @param self The slice to copy.\n     * @return A newly allocated string containing the slice's text.\n     */\n    function toString(slice self) internal returns (string) {\n        var ret = new string(self._len);\n        uint retptr;\n        assembly { retptr := add(ret, 32) }\n\n        memcpy(retptr, self._ptr, self._len);\n        return ret;\n    }\n\n\n\n    /*\n     * @dev Returns the length in bytes of the slice.\n     * @param self The slice to operate on.\n     * @return The length of the slice in bytes.\n     */\n    function len(slice self) internal returns (uint) {\n        return self._len;\n    }\n\n    /*\n     * @dev Returns true if the slice is empty (has a length of 0).\n     * @param self The slice to operate on.\n     * @return True if the slice is empty, False otherwise.\n     */\n    function empty(slice self) internal returns (bool) {\n        return self._len == 0;\n    }\n\n    /*\n     * @dev Returns a positive number if `other` comes lexicographically after\n     *      `self`, a negative number if it comes before, or zero if the\n     *      contents of the two slices are equal. Comparison is done per-rune,\n     *      on unicode codepoints.\n     * @param self The first slice to compare.\n     * @param other The second slice to compare.\n     * @return The result of the comparison.\n     */\n    function compare(slice self, slice other) internal returns (int) {\n        uint shortest = self._len;\n        if (other._len < self._len)\n            shortest = other._len;\n\n        var selfptr = self._ptr;\n        var otherptr = other._ptr;\n        for (uint idx = 0; idx < shortest; idx += 32) {\n            uint a;\n            uint b;\n            assembly {\n                a := mload(selfptr)\n                b := mload(otherptr)\n            }\n            if (a != b) {\n                // Mask out irrelevant bytes and check again\n                uint mask = ~(2 ** (8 * (32 - shortest + idx)) - 1);\n                var diff = (a & mask) - (b & mask);\n                if (diff != 0)\n                    return int(diff);\n            }\n            selfptr += 32;\n            otherptr += 32;\n        }\n        return int(self._len) - int(other._len);\n    }\n\n    /*\n     * @dev Returns true if the two slices contain the same text.\n     * @param self The first slice to compare.\n     * @param self The second slice to compare.\n     * @return True if the slices are equal, false otherwise.\n     */\n    function equals(slice self, slice other) internal returns (bool) {\n        return compare(self, other) == 0;\n    }\n\n    /*\n     * @dev Extracts the first rune in the slice into `rune`, advancing the\n     *      slice to point to the next rune and returning `self`.\n     * @param self The slice to operate on.\n     * @param rune The slice that will contain the first rune.\n     * @return `rune`.\n     */\n    function nextRune(slice self, slice rune) internal returns (slice) {\n        rune._ptr = self._ptr;\n\n        if (self._len == 0) {\n            rune._len = 0;\n            return rune;\n        }\n\n\t\t// Byte runes are always of length 1\n        uint len = 1;\n\n        self._ptr += len;\n        self._len -= len;\n        rune._len = len;\n        return rune;\n    }\n\n    /*\n     * @dev Returns the first rune in the slice, advancing the slice to point\n     *      to the next rune.\n     * @param self The slice to operate on.\n     * @return A slice containing only the first rune from `self`.\n     */\n    function nextRune(slice self) internal returns (slice ret) {\n        nextRune(self, ret);\n    }\n\n    /*\n     * @dev Returns the number of the first codepoint in the slice.\n     * @param self The slice to operate on.\n     * @return The number of the first codepoint in the slice.\n     */\n    function ord(slice self) internal returns (uint ret) {\n        if (self._len == 0) {\n            return 0;\n        }\n\n        uint word;\n        uint div = 2 ** 248;\n\n        // Load the rune into the MSBs of b\n        assembly { word:= mload(mload(add(self, 32))) }\n        ret = word / div;\n\n        return ret;\n    }\n\n    /*\n     * @dev Returns the keccak-256 hash of the slice.\n     * @param self The slice to hash.\n     * @return The hash of the slice.\n     */\n    function keccak(slice self) internal returns (bytes32 ret) {\n        assembly {\n            ret := sha3(mload(add(self, 32)), mload(self))\n        }\n    }\n\n    /*\n     * @dev Returns the sha-256 hash of the slice.\n     * @param self The slice to hash.\n     * @return The hash of the slice.\n     */\n    function slicesha256(slice self) internal returns (bytes32) {\n        bytes memory x = toBytes(self);\n        return sha256(x);\n    }\n\n\n    /*\n     * @dev Returns true if `self` starts with `needle`.\n     * @param self The slice to operate on.\n     * @param needle The slice to search for.\n     * @return True if the slice starts with the provided text, false otherwise.\n     */\n    function startsWith(slice self, slice needle) internal returns (bool) {\n        if (self._len < needle._len) {\n            return false;\n        }\n\n        if (self._ptr == needle._ptr) {\n            return true;\n        }\n\n        bool equal;\n        assembly {\n            let len := mload(needle)\n            let selfptr := mload(add(self, 0x20))\n            let needleptr := mload(add(needle, 0x20))\n            equal := eq(sha3(selfptr, len), sha3(needleptr, len))\n        }\n        return equal;\n    }\n\n    /*\n     * @dev If `self` starts with `needle`, `needle` is removed from the\n     *      beginning of `self`. Otherwise, `self` is unmodified.\n     * @param self The slice to operate on.\n     * @param needle The slice to search for.\n     * @return `self`\n     */\n    function beyond(slice self, slice needle) internal returns (slice) {\n        if (self._len < needle._len) {\n            return self;\n        }\n\n        bool equal = true;\n        if (self._ptr != needle._ptr) {\n            assembly {\n                let len := mload(needle)\n                let selfptr := mload(add(self, 0x20))\n                let needleptr := mload(add(needle, 0x20))\n                equal := eq(sha3(selfptr, len), sha3(needleptr, len))\n            }\n        }\n\n        if (equal) {\n            self._len -= needle._len;\n            self._ptr += needle._len;\n        }\n\n        return self;\n    }\n\n    /*\n     * @dev Returns true if the slice ends with `needle`.\n     * @param self The slice to operate on.\n     * @param needle The slice to search for.\n     * @return True if the slice starts with the provided text, false otherwise.\n     */\n    function endsWith(slice self, slice needle) internal returns (bool) {\n        if (self._len < needle._len) {\n            return false;\n        }\n\n        var selfptr = self._ptr + self._len - needle._len;\n\n        if (selfptr == needle._ptr) {\n            return true;\n        }\n\n        bool equal;\n        assembly {\n            let len := mload(needle)\n            let needleptr := mload(add(needle, 0x20))\n            equal := eq(sha3(selfptr, len), sha3(needleptr, len))\n        }\n\n        return equal;\n    }\n\n    /*\n     * @dev If `self` ends with `needle`, `needle` is removed from the\n     *      end of `self`. Otherwise, `self` is unmodified.\n     * @param self The slice to operate on.\n     * @param needle The slice to search for.\n     * @return `self`\n     */\n    function until(slice self, slice needle) internal returns (slice) {\n        if (self._len < needle._len) {\n            return self;\n        }\n\n        var selfptr = self._ptr + self._len - needle._len;\n        bool equal = true;\n        if (selfptr != needle._ptr) {\n            assembly {\n                let len := mload(needle)\n                let needleptr := mload(add(needle, 0x20))\n                equal := eq(sha3(selfptr, len), sha3(needleptr, len))\n            }\n        }\n\n        if (equal) {\n            self._len -= needle._len;\n        }\n\n        return self;\n    }\n\n    // Returns the memory address of the first byte of the first occurrence of\n    // `needle` in `self`, or the first byte after `self` if not found.\n    function findPtr(uint selflen, uint selfptr, uint needlelen, uint needleptr) private returns (uint) {\n        uint ptr;\n        uint idx;\n\n        if (needlelen <= selflen) {\n            if (needlelen <= 32) {\n                // Optimized assembly for 68 gas per byte on short strings\n                assembly {\n                    let mask := not(sub(exp(2, mul(8, sub(32, needlelen))), 1))\n                    let needledata := and(mload(needleptr), mask)\n                    let end := add(selfptr, sub(selflen, needlelen))\n                    ptr := selfptr\n                    loop:\n                    jumpi(exit, eq(and(mload(ptr), mask), needledata))\n                    ptr := add(ptr, 1)\n                    jumpi(loop, lt(sub(ptr, 1), end))\n                    ptr := add(selfptr, selflen)\n                    exit:\n                }\n                return ptr;\n            } else {\n                // For long needles, use hashing\n                bytes32 hash;\n                assembly { hash := sha3(needleptr, needlelen) }\n                ptr = selfptr;\n                for (idx = 0; idx <= selflen - needlelen; idx++) {\n                    bytes32 testHash;\n                    assembly { testHash := sha3(ptr, needlelen) }\n                    if (hash == testHash)\n                        return ptr;\n                    ptr += 1;\n                }\n            }\n        }\n        return selfptr + selflen;\n    }\n\n    // Returns the memory address of the first byte after the last occurrence of\n    // `needle` in `self`, or the address of `self` if not found.\n    function rfindPtr(uint selflen, uint selfptr, uint needlelen, uint needleptr) private returns (uint) {\n        uint ptr;\n\n        if (needlelen <= selflen) {\n            if (needlelen <= 32) {\n                // Optimized assembly for 69 gas per byte on short strings\n                assembly {\n                    let mask := not(sub(exp(2, mul(8, sub(32, needlelen))), 1))\n                    let needledata := and(mload(needleptr), mask)\n                    ptr := add(selfptr, sub(selflen, needlelen))\n                    loop:\n                    jumpi(ret, eq(and(mload(ptr), mask), needledata))\n                    ptr := sub(ptr, 1)\n                    jumpi(loop, gt(add(ptr, 1), selfptr))\n                    ptr := selfptr\n                    jump(exit)\n                    ret:\n                    ptr := add(ptr, needlelen)\n                    exit:\n                }\n                return ptr;\n            } else {\n                // For long needles, use hashing\n                bytes32 hash;\n                assembly { hash := sha3(needleptr, needlelen) }\n                ptr = selfptr + (selflen - needlelen);\n                while (ptr >= selfptr) {\n                    bytes32 testHash;\n                    assembly { testHash := sha3(ptr, needlelen) }\n                    if (hash == testHash)\n                        return ptr + needlelen;\n                    ptr -= 1;\n                }\n            }\n        }\n        return selfptr;\n    }\n\n    /*\n     * @dev Modifies `self` to contain everything from the first occurrence of\n     *      `needle` to the end of the slice. `self` is set to the empty slice\n     *      if `needle` is not found.\n     * @param self The slice to search and modify.\n     * @param needle The text to search for.\n     * @return `self`.\n     */\n    function find(slice self, slice needle) internal returns (slice) {\n        uint ptr = findPtr(self._len, self._ptr, needle._len, needle._ptr);\n        self._len -= ptr - self._ptr;\n        self._ptr = ptr;\n        return self;\n    }\n\n    /*\n     * @dev Modifies `self` to contain the part of the string from the start of\n     *      `self` to the end of the last occurrence of `needle`. If `needle`\n     *      is not found, `self` is set to the empty slice.\n     * @param self The slice to search and modify.\n     * @param needle The text to search for.\n     * @return `self`.\n     */\n    function rfind(slice self, slice needle) internal returns (slice) {\n        uint ptr = rfindPtr(self._len, self._ptr, needle._len, needle._ptr);\n        self._len = ptr - self._ptr;\n        return self;\n    }\n\n    /*\n     * @dev Splits the slice, setting `self` to everything after the first\n     *      occurrence of `needle`, and `token` to everything before it. If\n     *      `needle` does not occur in `self`, `self` is set to the empty slice,\n     *      and `token` is set to the entirety of `self`.\n     * @param self The slice to split.\n     * @param needle The text to search for in `self`.\n     * @param token An output parameter to which the first token is written.\n     * @return `token`.\n     */\n    function split(slice self, slice needle, slice token) internal returns (slice) {\n        uint ptr = findPtr(self._len, self._ptr, needle._len, needle._ptr);\n        token._ptr = self._ptr;\n        token._len = ptr - self._ptr;\n        if (ptr == self._ptr + self._len) {\n            // Not found\n            self._len = 0;\n        } else {\n            self._len -= token._len + needle._len;\n            self._ptr = ptr + needle._len;\n        }\n        return token;\n    }\n\n    /*\n     * @dev Splits the slice, setting `self` to everything after the first\n     *      occurrence of `needle`, and returning everything before it. If\n     *      `needle` does not occur in `self`, `self` is set to the empty slice,\n     *      and the entirety of `self` is returned.\n     * @param self The slice to split.\n     * @param needle The text to search for in `self`.\n     * @return The part of `self` up to the first occurrence of `delim`.\n     */\n    function split(slice self, slice needle) internal returns (slice token) {\n        split(self, needle, token);\n    }\n\n    /*\n     * @dev Splits the slice, setting `self` to everything before the last\n     *      occurrence of `needle`, and `token` to everything after it. If\n     *      `needle` does not occur in `self`, `self` is set to the empty slice,\n     *      and `token` is set to the entirety of `self`.\n     * @param self The slice to split.\n     * @param needle The text to search for in `self`.\n     * @param token An output parameter to which the first token is written.\n     * @return `token`.\n     */\n    function rsplit(slice self, slice needle, slice token) internal returns (slice) {\n        uint ptr = rfindPtr(self._len, self._ptr, needle._len, needle._ptr);\n        token._ptr = ptr;\n        token._len = self._len - (ptr - self._ptr);\n        if (ptr == self._ptr) {\n            // Not found\n            self._len = 0;\n        } else {\n            self._len -= token._len + needle._len;\n        }\n        return token;\n    }\n\n    /*\n     * @dev Splits the slice, setting `self` to everything before the last\n     *      occurrence of `needle`, and returning everything after it. If\n     *      `needle` does not occur in `self`, `self` is set to the empty slice,\n     *      and the entirety of `self` is returned.\n     * @param self The slice to split.\n     * @param needle The text to search for in `self`.\n     * @return The part of `self` after the last occurrence of `delim`.\n     */\n    function rsplit(slice self, slice needle) internal returns (slice token) {\n        rsplit(self, needle, token);\n    }\n\n    /*\n     * @dev Counts the number of nonoverlapping occurrences of `needle` in `self`.\n     * @param self The slice to search.\n     * @param needle The text to search for in `self`.\n     * @return The number of occurrences of `needle` found in `self`.\n     */\n    function count(slice self, slice needle) internal returns (uint count) {\n        uint ptr = findPtr(self._len, self._ptr, needle._len, needle._ptr) + needle._len;\n        while (ptr <= self._ptr + self._len) {\n            count++;\n            ptr = findPtr(self._len - (ptr - self._ptr), ptr, needle._len, needle._ptr) + needle._len;\n        }\n    }\n\n    /*\n     * @dev Returns True if `self` contains `needle`.\n     * @param self The slice to search.\n     * @param needle The text to search for in `self`.\n     * @return True if `needle` is found in `self`, false otherwise.\n     */\n    function contains(slice self, slice needle) internal returns (bool) {\n        return rfindPtr(self._len, self._ptr, needle._len, needle._ptr) != self._ptr;\n    }\n\n    /*\n     * @dev Returns a newly allocated bytestring containing the concatenation of\n     *      `self` and `other`.\n     * @param self The first slice to concatenate.\n     * @param other The second slice to concatenate.\n     * @return The concatenation of the two bytestrings.\n     */\n    function concat(slice self, slice other) internal returns (bytes) {\n        var ret = new bytes(self._len + other._len);\n        uint retptr;\n        assembly { retptr := add(ret, 32) }\n        memcpy(retptr, self._ptr, self._len);\n        memcpy(retptr + self._len, other._ptr, other._len);\n        return ret;\n    }\n\n    /*\n     * @dev Truncates a slice to a specified new length.\n     * @param self The slice to truncate.\n     * @param new_len The new length.\n     * @return The truncated slice.\n     */\n    function truncate(slice self, uint new_len) internal returns (slice){\n        if(self._len > new_len){\n            self._len = new_len;\n        }\n        return self;\n    }\n\n\n    /*\n     * @dev Joins an array of slices, using `self` as a delimiter, returning a\n     *      newly allocated bytestring.\n     * @param self The delimiter to use.\n     * @param parts A list of slices to join.\n     * @return A newly allocated bytestring containing all the slices in `parts`,\n     *         joined with `self`.\n     */\n    function join(slice self, slice[] parts) internal returns (bytes) {\n        if (parts.length == 0)\n            return \"\";\n\n        uint len = self._len * (parts.length - 1);\n        for(uint i = 0; i < parts.length; i++)\n            len += parts[i]._len;\n\n        var ret = new bytes(len);\n        uint retptr;\n        assembly { retptr := add(ret, 32) }\n\n        for(i = 0; i < parts.length; i++) {\n            memcpy(retptr, parts[i]._ptr, parts[i]._len);\n            retptr += parts[i]._len;\n            if (i < parts.length - 1) {\n                memcpy(retptr, self._ptr, self._len);\n                retptr += self._len;\n            }\n        }\n\n        return ret;\n    }\n}\n\n// Library for secp256r1\nlibrary ECMath {\n\n\n  //curve parameters secp256r1\n  uint256 constant a=115792089210356248762697446949407573530086143415290314195533631308867097853948;\n  uint256 constant b=41058363725152142129326129780047268409114441015993725554835256314039467401291;\n  uint256 constant gx=48439561293906451759052585252797914202762949526041747995844080717082404635286;\n  uint256 constant gy=36134250956749795798585127919587881956611106672985015071877198253568414405109;\n  uint256 constant p=115792089210356248762697446949407573530086143415290314195533631308867097853951;\n  uint256 constant n=115792089210356248762697446949407573529996955224135760342422259061068512044369;\n  uint256 constant h=1;\n\n\n  function ecdsaverify(uint256 qx, uint256 qy, uint256 e, uint256 r, uint256 s) returns (bool) {\n\n    if (!isPoint(qx,qy)) {\n      return false;\n    }\n\n    //temporary variables\n    uint256 w;\n    uint256 u1;\n    uint256 u2;\n    uint256[3] memory T1;\n    uint256[3] memory T2;\n    w=invmod(s,n);\n    u1=mulmod(e,w,n);\n    u2=mulmod(r,w,n);\n    T1=ecmul([gx,gy,1],u1);\n    T2=ecmul([qx,qy,1],u2);\n    T2=ecadd(T1,T2);\n    if (r==JtoA(T2)[0]) {\n      return true;\n    }\n    return false;\n  }\n\n  //function checks if point (x1,y1) is on curve, x1 and y1 affine coordinate parameters\n  function isPoint(uint256 x1, uint256 y1) private returns (bool) {\n    //point fulfills y^2=x^3+ax+b?\n    if (mulmod(y1,y1,p) == addmod(mulmod(x1,mulmod(x1,x1,p),p),addmod(mulmod(a,x1,p),b,p),p)) {\n      return (true);\n    }\n    else {\n      return (false);\n    }\n  }\n\n  // point addition for elliptic curve in jacobian coordinates\n  // formula from https://en.wikibooks.org/wiki/Cryptography/Prime_Curve/Jacobian_Coordinates\n  function ecadd(uint256[3] P, uint256[3] Q) private returns (uint256[3] R) {\n\n    uint256 u1;\n    uint256 u2;\n    uint256 s1;\n    uint256 s2;\n\n    if (Q[0]==0 && Q[1]==0 && Q[2]==0) {\n      return P;\n    }\n\n    u1 = mulmod(P[0],mulmod(Q[2],Q[2],p),p);\n    u2 = mulmod(Q[0],mulmod(P[2],P[2],p),p);\n    s1 = mulmod(P[1],mulmod(mulmod(Q[2],Q[2],p),Q[2],p),p);\n    s2 = mulmod(Q[1],mulmod(mulmod(P[2],P[2],p),P[2],p),p);\n\n    if (u1==u2) {\n      if (s1 != s2) {\n        R[0]=1;\n        R[1]=1;\n        R[2]=0;\n        return R;\n      }\n      else {\n        return ecdouble(P);\n      }\n    }\n\n    uint256 h;\n    uint256 r;\n\n    h = addmod(u2,(p-u1),p);\n    r = addmod(s2,(p-s1),p);\n\n    R[0] = addmod(addmod(mulmod(r,r,p),(p-mulmod(h,mulmod(h,h,p),p)),p),(p-mulmod(2,mulmod(u1,mulmod(h,h,p),p),p)),p);\n    R[1] = addmod(mulmod(r,addmod(mulmod(u1,mulmod(h,h,p),p),(p-R[0]),p),p),(p-mulmod(s1,mulmod(h,mulmod(h,h,p),p),p)),p);\n    R[2] = mulmod(h,mulmod(P[2],Q[2],p),p);\n\n    return (R);\n  }\n\n  //point doubling for elliptic curve in jacobian coordinates\n  //formula from https://en.wikibooks.org/wiki/Cryptography/Prime_Curve/Jacobian_Coordinates\n  function ecdouble(uint256[3] P) private returns(uint256[3] R){\n\n    //return point at infinity\n    if (P[1]==0) {\n      R[0]=1;\n      R[1]=1;\n      R[2]=0;\n      return (R);\n    }\n\n    uint256 m;\n    uint256 s;\n\n    s = mulmod(4,mulmod(P[0],mulmod(P[1],P[1],p),p),p);\n    m = addmod(mulmod(3,mulmod(P[0],P[0],p),p),mulmod(a,mulmod(mulmod(P[2],P[2],p),mulmod(P[2],P[2],p),p),p),p);\n    R[0] = addmod(mulmod(m,m,p),(p-mulmod(s,2,p)),p);\n    R[1] = addmod(mulmod(m,addmod(s,(p-R[0]),p),p),(p-mulmod(8,mulmod(mulmod(P[1],P[1],p),mulmod(P[1],P[1],p),p),p)),p);\n    R[2] = mulmod(2,mulmod(P[1],P[2],p),p);\n\n    return (R);\n\n  }\n\n  // function for elliptic curve multiplication in jacobian coordinates using Double-and-add method\n  function ecmul(uint256[3] P, uint256 d) private returns (uint256[3] R) {\n\n    R[0]=0;\n    R[1]=0;\n    R[2]=0;\n\n    //return (0,0) if d=0 or (x1,y1)=(0,0)\n    if (d == 0 || ((P[0]==0) && (P[1]==0)) ) {\n      return (R);\n    }\n    uint256[3] memory T;\n    T[0]=P[0]; //x-coordinate temp\n    T[1]=P[1]; //y-coordinate temp\n    T[2]=P[2]; //z-coordiante temp\n\n    while (d != 0) {\n      if ((d & 1) == 1) {  //if last bit is 1 add T to result\n        R = ecadd(T,R);\n      }\n      T = ecdouble(T);    //double temporary coordinates\n      d=d/2;              //\"cut off\" last bit\n    }\n\n    return R;\n  }\n\n  //jacobian to affine coordinates transfomration\n  function JtoA(uint256[3] P) private returns (uint256[2] Pnew) {\n    uint zInv = invmod(P[2],p);\n    uint zInv2 = mulmod(zInv, zInv, p);\n    Pnew[0] = mulmod(P[0], zInv2, p);\n    Pnew[1] = mulmod(P[1], mulmod(zInv,zInv2,p), p);\n  }\n\n  //computing inverse by using euclidean algorithm\n  function invmod(uint256 a, uint p) private returns(uint256 invA) {\n    uint256 t=0;\n    uint256 newT=1;\n    uint256 r=p;\n    uint256 newR=a;\n    uint256 q;\n    while (newR != 0) {\n      q = r / newR;\n\n      (t, newT) = (newT, addmod(t , (p - mulmod(q, newT,p)) , p));\n      (r, newR) = (newR, r - q * newR );\n    }\n\n    return t;\n  }\n\n}\n\nlibrary tlsnutils{\n\n    using bytesutils for *;\n\n    /*\n     * @dev Returns the complete conversation part of one peer (all generator records).\n     * @param proof The proof.\n     * @param conversation_part 0 = Requester(Client), 1 = Generator(Server).\n     * @return The response as a bytestring.\n    */\n    function getConversationPart(bytes memory proof, bytes1 conversation_part) private returns(bytes){\n        bytes memory response = \"\";\n        uint16 readPos = 96;\n        // Skipping the certificate chain\n        readPos += uint16(proof[26])+256*uint16(proof[27]);\n        bytes1 generator_originated;\n        // Parse one record after another ( i < num_proof_nodes )\n        for(uint16 i = 0; i < uint16(proof[6])+256*uint16(proof[7]); i++){\n\n            // Assume the request is in the first record\n            bytes2 len_record; // Length of the record\n            assembly { len_record := mload(add(proof,add(readPos,33))) }\n\n            uint16 tmplen = uint16(len_record[0])+256*uint16(len_record[1]);\n\n            generator_originated = proof[readPos+3];\n\n            // Skip node, type, content len and generator info\n            readPos += 4;\n\n            if(generator_originated == conversation_part){\n                var chunk = proof.toSlice(readPos).truncate(tmplen);\n                response = response.toSlice().concat(chunk);\n            }\n            readPos += tmplen + 16;\n        }\n        return response;\n    }\n\n\n\n    /*\n     * @dev Returns the complete request (all requester records).\n     * @param proof The proof.\n     * @return The request as a bytestring.\n    */\n    function getRequest(bytes memory proof) internal returns(bytes){\n        return getConversationPart(proof, 0);\n    }\n\n\n    /*\n     * @dev Returns the complete response (all generator records).\n     * @param proof The proof.\n     * @return The response as a bytestring.\n    */\n    function getResponse(bytes memory proof) internal returns(bytes){\n        return getConversationPart(proof, 1);\n    }\n\n\n\n    /*\n     * @dev Returns the HTTP body.\n     * @param proof The proof.\n     * @return The HTTP body in case the request was valid. (200 OK)\n    */\n    function getHTTPBody(bytes memory proof) internal returns(bytes){\n        bytes memory response = getResponse(proof);\n        bytesutils.slice memory code = response.toSlice().truncate(15);\n        require(code.equals(\"HTTP/1.1 200 OK\".toSlice()));\n        bytesutils.slice memory body = response.toSlice().find(\"\\r\\n\\r\\n\".toSlice());\n        body.addOffset(4);\n        return body.toBytes();\n    }\n\n\n    /*\n     * @dev Returns HTTP Host inside the request\n     * @param proof The proof.\n     * @return The Host as a bytestring.\n    */\n    function getHost(bytes memory proof) internal returns(bytes){\n        bytesutils.slice memory request = getRequest(proof).toSlice();\n        // Search in Headers\n        request = request.split(\"\\r\\n\\r\\n\".toSlice());\n        // Find host header\n        request.find(\"Host:\".toSlice());\n        request.addOffset(5);\n        // Until newline\n        request = request.split(\"\\r\\n\".toSlice());\n        while(request.startsWith(\" \".toSlice())){\n            request.addOffset(1);\n        }\n\t\trequire(request.len() > 0);\n        return request.toBytes();\n    }\n\n    /*\n     * @dev Returns the requested URL for HTTP\n     * @param proof The proof.\n     * @return The request as a bytestring. Empty string on error.\n    */\n    function getHTTPRequestURL(bytes memory proof) internal returns(bytes){\n        bytes memory request = getRequest(proof);\n        bytesutils.slice memory slice = request.toSlice();\n        bytesutils.slice memory delim = \" \".toSlice();\n        // Check the method is GET\n        bytesutils.slice memory method = slice.split(delim);\n        require(method.equals(\"GET\".toSlice()));\n        // Return the URL\n        return slice.split(delim).toBytes();\n    }\n\n    /*\n     * @dev Verify a proof signed by tls-n.org.\n     * @param proof The proof.\n     * @return True iff valid.\n    */\n\tfunction verifyProof(bytes memory proof) returns(bool) {\n\t\tuint256 qx = 0x0de2583dc1b70c4d17936f6ca4d2a07aa2aba06b76a97e60e62af286adc1cc09; //public key x-coordinate signer\n\t\tuint256 qy = 0x68ba8822c94e79903406a002f4bc6a982d1b473f109debb2aa020c66f642144a; //public key y-coordinate signer\n\t\treturn verifyProof(proof, qx, qy);\n\t}\n\n    /*\n     * @dev Verify a proof signed by the specified key.\n     * @param proof The proof.\n     * @return True iff valid.\n    */\n\tfunction verifyProof(bytes memory proof, uint256 qx, uint256 qy) returns(bool) {\n\t\tbytes32 m; // Evidence Hash in bytes32\n\t\tuint256 e; // Evidence Hash in uint256\n\t\tuint256 sig_r; //signature parameter\n\t\tuint256 sig_s; //signature parameter\n\n\t\t// Returns ECC signature parts and the evidence hash\n\t\t(sig_r, sig_s, m) = parseProof(proof);\n\n\t\t// Convert evidence hash to uint\n\t\te = uint256(m);\n\n\t\t// Verify signature\n\t\treturn ECMath.ecdsaverify(qx, qy, e, sig_r, sig_s);\n\n\t}\n\n    /*\n     * @dev Parses the provided proof and returns the signature parts and the evidence hash.\n\t * For 64-byte ECC proofs with SHA256.\n     * @param proof The proof.\n     * @return sig_r, sig_s: signature parts and hashchain: the final evidence hash.\n    */\n  function parseProof(bytes memory proof) returns(uint256 sig_r, uint256 sig_s, bytes32 hashchain) {\n\n      uint16 readPos = 0; // Initialize index in proof bytes array\n      bytes16 times; // Contains Timestamps for signature validation\n\t  bytes2 len_record; // Length of the record\n\t  bytes1 generator_originated; // Boolean whether originated by generator\n\t  bytes memory chunk; // One chunk for hashing\n\t  bytes16 saltsecret; // Salt secret from proof\n\n      // Parse times\n      assembly {\n        times := mload(add(proof, 40))\n      }\n      readPos += 32; //update readPos, skip parameters\n\n    assembly {\n        sig_r := mload(add(proof,64))\n        sig_s := mload(add(proof,96))\n\t    readPos := add(readPos, 64)\n    }\n\n      // Skipping the certificate chain\n      readPos += uint16(proof[26])+256*uint16(proof[27]);\n\n      // Parse one record after another ( i < num_proof_nodes )\n\t  for(uint16 i = 0; i < uint16(proof[6])+256*uint16(proof[7]); i++){\n\t\t\t// Get the Record length as a byte array\n\t\t\tassembly { len_record := mload(add(proof,add(readPos,33))) }\n\t\t\t// Convert the record length into a number\n\t\t\tuint16 tmplen = uint16(len_record[0])+256*uint16(len_record[1]);\n\t\t\t// Parse generator information\n\t\t\tgenerator_originated = proof[readPos+3];\n\t\t\t// Update readPos\n\t\t\treadPos += 4;\n\t\t\t// Set chunk pointer\n\t\t\tassembly { chunk := add(proof,readPos) }\n\t\t\t// Set length of chunks\n\t\t\tassembly { mstore(chunk, tmplen) }\n\t\t\t// Load saltsecret\n\t\t\tassembly { saltsecret := mload(add(proof,add(readPos,add(tmplen,32)))) }\n\t\t\t// Root hash\n\t\t\tbytes32 hash = sha256(saltsecret,chunk,uint8(0),len_record,generator_originated);\n\t\t\t// Hash chain\n\t\t\tif(i == 0){\n\t\t\t\thashchain = sha256(uint8(1),hash);\n\t\t\t}else{\n\t\t\t\thashchain = sha256(uint8(1),hashchain,hash);\n\t\t\t}\n\t\t\t// Jump over record and salt secret\n\t\t\treadPos += tmplen + 16;\n\t\t}\n\t\t// Compute Evidence Hash\n\t\t// Load chunk size and salt size\n\t\tbytes4 test; // Temporarily contains salt size and chunk size\n\t\tassembly { test := mload(add(proof,34)) }\n\t\t// Compute final hash chain\n\t\thashchain = sha256(hashchain, times, test, 0x04000000);\n    }\n}\n\ncontract FootballBetting {\n  /***********************************/\n  /******* CONTRACT ATTRIBUTES *******/\n  /***********************************/\n\n  struct Bet {\n    uint betID;\n    address proposer;\n    address acceptor;\n    bool accepted;\n    uint acceptorAmount;\n    uint proposerAmount;\n    uint proposerHomeScore;\n    uint proposerAwayScore;\n    bool resolved;\n    int fixtureID;\n    uint totalAmount;\n    bool deleted;\n  }\n\n  address public master;\n  uint betCount;\n  uint[] betIDs;\n  mapping(uint => Bet) public bets;\n\n  /***********************************/\n  /************* MODIFIERS ***********/\n  /***********************************/\n\n\n  /***********************************/\n  /************** EVENTS *************/\n  /***********************************/\n\n  event BetChange(uint betID);\n  /***********************************/\n  /********* PUBLIC FUNCTIONS ********/\n  /***********************************/\n\n  /// @dev      Betting contract constructor sets initial bet count to 0\n  function Betting() public {\n    master = msg.sender;\n    betCount = 0;\n  }\n\n  /// @dev                    Allows a user to propose a bet\n  /// @param  _proof  The json file passing through from the football API\n  /// @param  _acceptorAmount The odds put forward by the user\n  /// @param  _home_score     The home score proposed by the user\n  /// @param  _away_score     The away score proposed by the user\n  function proposeBet(bytes memory _proof, uint _acceptorAmount, uint _home_score, uint _away_score) public payable {\n    require(verifyProof(_proof));\n    require(msg.value > 0);\n\n    string memory json = string(tlsnutils.getHTTPBody(_proof));\n    uint returnValue;\n    JsmnSolLib.Token[] memory tokens;\n    uint actualNum;\n    (returnValue, tokens, actualNum) = JsmnSolLib.parse(json, 100);\n    // Next check that the fixture being inputted has null scores (i.e. a fixture in the future)\n    string memory score1 = JsmnSolLib.getBytes(json, tokens[25].start, tokens[25].end);\n    string memory score2 = JsmnSolLib.getBytes(json, tokens[27].start, tokens[27].end);\n\n    require(compareStrings(score1,'null') && compareStrings(score2, 'null'));\n\n    string memory fixtureIDStr = JsmnSolLib.getBytes(json, tokens[5].start, tokens[5].end);\n    int fixtureID = JsmnSolLib.parseInt(fixtureIDStr);\n    uint betID = (betCount++)+1000;\n    betIDs.push(betID);\n    bets[betID] = Bet(betID, msg.sender, 0, false, _acceptorAmount, msg.value,_home_score,_away_score,false,fixtureID,(msg.value+_acceptorAmount), false);\n    BetChange(betID);\n  }\n\n  /// @dev       Compares two strings\n  /// @param  a  The first string to be compared\n  /// @param  b  The second string to be compared\n  /// @return    Returns true if two strings are the same, false otherwise\n  function compareStrings (string a, string b) public returns (bool){\n       return keccak256(a) == keccak256(b);\n   }\n\n   /// @dev            Allows a user to accept a proposed bet\n   /// @param  _betID  The bet ID that the user is accepting\n   /// @return         The second string to be compared\n\n  function acceptBet(uint _betID) public payable {\n    require((msg.value == (bets[_betID].acceptorAmount)) &&\n      !bets[_betID].accepted && (msg.sender != bets[_betID].proposer));\n      bets[_betID].acceptor = msg.sender;\n      bets[_betID].accepted = true;\n      BetChange(_betID);\n  }\n\n  /// @dev                    Calculates the winner of a specific bet\n  /// @param  _betID          The bet ID that is being used\n  /// @param  _proof  The json file with the fixture ID and results\n  function resolveBet(uint _betID, bytes memory _proof) public payable {\n    // First check that the json being passed in actually has scores for the match\n    require(verifyProof(_proof));\n\n    string memory json = string(tlsnutils.getHTTPBody(_proof));\n    uint returnValue;\n    JsmnSolLib.Token[] memory tokens;\n    uint actualNum;\n    (returnValue, tokens, actualNum) = JsmnSolLib.parse(json, 100);\n    string memory score1 = JsmnSolLib.getBytes(json, tokens[25].start, tokens[25].end);\n    string memory score2 = JsmnSolLib.getBytes(json, tokens[27].start, tokens[27].end);\n\n    string memory fixtureIDStr = JsmnSolLib.getBytes(json, tokens[5].start, tokens[5].end);\n    int fixtureID = JsmnSolLib.parseInt(fixtureIDStr);\n    require(fixtureID == bets[_betID].fixtureID);\n\n    require((!compareStrings(score1,'null') && !compareStrings(score2,'null')));\n    int score1int = JsmnSolLib.parseInt(score1);\n    int score2int = JsmnSolLib.parseInt(score2);\n    bets[_betID].resolved = true;\n\n    if (bets[_betID].proposerHomeScore == uint(score1int) && bets[_betID].proposerAwayScore == uint(score2int)) {\n      bets[_betID].proposer.transfer(bets[_betID].totalAmount);\n    }\n    else {\n      bets[_betID].acceptor.transfer(bets[_betID].totalAmount);\n    }\n  }\n\n  /**\n   * @dev            allows user to cancel a proposed bet, betID is deleted and\n   *                 bet funds transfered to the proposer\n   * @param _betID   The bet ID that is being canceled\n   */\n  function cancelBet(uint _betID) public payable {\n      require(bets[_betID].proposer == msg.sender);\n      require(bets[_betID].accepted == false);\n      bets[_betID].deleted = true;\n      BetChange(_betID);\n      bets[_betID].proposer.transfer(bets[_betID].proposerAmount);\n  }\n\n  /// @dev                    Returns details of a bet\n  /// @param  _betID          The bet ID that you are requesting\n  /// @return                 1. odds of the bet, 2. bet amount, 3. proposer home score,\n  ///                         4. proposer away score, 5. the fixture ID, 6. the proposer address\n  ///                         7. a boolean stating whether the bet has finished or not\n  function getBet(uint _betID) public constant returns (uint, uint, uint, uint, int, address, address) {\n    return  ( bets[_betID].proposerAmount,\n              bets[_betID].acceptorAmount,\n              bets[_betID].proposerHomeScore,\n              bets[_betID].proposerAwayScore,\n              bets[_betID].fixtureID,\n              bets[_betID].proposer,\n\t      bets[_betID].acceptor);\n  }\n\n  /// @dev                    Returns an array of all bet IDs\n  /// @return                 All bet IDs that have ever been created\n  function getBets() public constant returns (uint[]) {\n    return betIDs;\n  }\n\n  /// @dev                    Allows the requestor to see how many bets have been created\n  /// @return                 Returns an integer of the number of bets\n  function getNumberOfBets() public constant returns (uint) {\n   return betIDs.length;\n  }\n\n  /***********************************/\n  /******** PRIVATE FUNCTIONS ********/\n  /***********************************/\n\n  function verifyProof(bytes memory proof) private returns (bool){\n    uint256 qx = 0xe0a5793d275a533d50421b201c2c9a909abb58b1a9c0f9eb9b7963e5c8bc2295;\n    uint256 qy = 0xf34d47cb92b6474562675127677d4e446418498884c101aeb38f3afb0cab997e;\n\n    if(tlsnutils.verifyProof(proof, qx, qy)) {\n      return true;\n    }\n    return false;\n  }\n}\n",
  "sourcePath": "/home/mohammed/dev/imperial/BettingDapp/contracts/FootballBetting.sol",
  "compiler": {
    "name": "solc",
    "version": "0.4.18+commit.9cf6e910.Emscripten.clang"
  },
  "schemaVersion": "1.0.1",
  "updatedAt": "2018-05-12T19:40:05.823Z"
}