{
  "contractName": "tlsnutils",
  "abi": [
    {
      "constant": false,
      "inputs": [
        {
          "name": "proof",
          "type": "bytes"
        },
        {
          "name": "qx",
          "type": "uint256"
        },
        {
          "name": "qy",
          "type": "uint256"
        }
      ],
      "name": "verifyProof",
      "outputs": [
        {
          "name": "",
          "type": "bool"
        }
      ],
      "payable": false,
      "stateMutability": "nonpayable",
      "type": "function"
    },
    {
      "constant": false,
      "inputs": [
        {
          "name": "proof",
          "type": "bytes"
        }
      ],
      "name": "verifyProof",
      "outputs": [
        {
          "name": "",
          "type": "bool"
        }
      ],
      "payable": false,
      "stateMutability": "nonpayable",
      "type": "function"
    },
    {
      "constant": false,
      "inputs": [
        {
          "name": "proof",
          "type": "bytes"
        }
      ],
      "name": "parseProof",
      "outputs": [
        {
          "name": "sig_r",
          "type": "uint256"
        },
        {
          "name": "sig_s",
          "type": "uint256"
        },
        {
          "name": "hashchain",
          "type": "bytes32"
        }
      ],
      "payable": false,
      "stateMutability": "nonpayable",
      "type": "function"
    }
  ],
  "bytecode": "0x6060604052341561000f57600080fd5b610a7b8061001e6000396000f300606060405260043610610057576000357c0100000000000000000000000000000000000000000000000000000000900463ffffffff1680635569909f1461005c57806355c265fe146100d8578063793deea314610142575b600080fd5b6100be600480803590602001908201803590602001908080601f016020809104026020016040519081016040528093929190818152602001838380828437820191505050505050919080359060200190919080359060200190919050506101be565b604051808215151515815260200191505060405180910390f35b610128600480803590602001908201803590602001908080601f0160208091040260200160405190810160405280939291908181526020018383808284378201915050505050509190505061029d565b604051808215151515815260200191505060405180910390f35b610192600480803590602001908201803590602001908080601f016020809104026020016040519081016040528093929190818152602001838380828437820191505050505050919050506102fc565b604051808481526020018381526020018260001916600019168152602001935050505060405180910390f35b60008060008060006101cf886102fc565b8096508193508294505050508360019004925073__ECMath________________________________63d2689abc88888686866000604051602001526040518663ffffffff167c0100000000000000000000000000000000000000000000000000000000028152600401808681526020018581526020018481526020018381526020018281526020019550505050505060206040518083038186803b151561027557600080fd5b6102c65a03f4151561028657600080fd5b505050604051805190509450505050509392505050565b60008060007f0de2583dc1b70c4d17936f6ca4d2a07aa2aba06b76a97e60e62af286adc1cc0991507f68ba8822c94e79903406a002f4bc6a982d1b473f109debb2aa020c66f642144a90506102f38483836101be565b92505050919050565b600080600080600080600061030f610a3b565b600080600080600080995060288e0151985060208a01995060408e01519c5060608e01519b5060408a0199508d601b81518110151561034a57fe5b9060200101517f010000000000000000000000000000000000000000000000000000000000000090047f0100000000000000000000000000000000000000000000000000000000000000027f01000000000000000000000000000000000000000000000000000000000000009004610100028e601a8151811015156103cb57fe5b9060200101517f010000000000000000000000000000000000000000000000000000000000000090047f0100000000000000000000000000000000000000000000000000000000000000027f01000000000000000000000000000000000000000000000000000000000000009004018a019950600093505b8d600781518110151561045257fe5b9060200101517f010000000000000000000000000000000000000000000000000000000000000090047f0100000000000000000000000000000000000000000000000000000000000000027f01000000000000000000000000000000000000000000000000000000000000009004610100028e60068151811015156104d357fe5b9060200101517f010000000000000000000000000000000000000000000000000000000000000090047f0100000000000000000000000000000000000000000000000000000000000000027f010000000000000000000000000000000000000000000000000000000000000090040161ffff168461ffff1610156109355760218a018e0151975087600160028110151561056957fe5b1a7f0100000000000000000000000000000000000000000000000000000000000000027f01000000000000000000000000000000000000000000000000000000000000009004610100028860006002811015156105c257fe5b1a7f0100000000000000000000000000000000000000000000000000000000000000027f010000000000000000000000000000000000000000000000000000000000000090040192508d60038b0161ffff1681518110151561062057fe5b9060200101517f010000000000000000000000000000000000000000000000000000000000000090047f010000000000000000000000000000000000000000000000000000000000000002965060048a019950898e019550828652602083018a018e015194506002858760008b8b60006040516020015260405180866fffffffffffffffffffffffffffffffff19166fffffffffffffffffffffffffffffffff1916815260100185805190602001908083835b6020831015156106f857805182526020820191506020810190506020830392506106d3565b6001836020036101000a0380198251168184511680821785525050505050509050018460ff1660ff167f0100000000000000000000000000000000000000000000000000000000000000028152600101837dffffffffffffffffffffffffffffffffffffffffffffffffffffffffffff19167dffffffffffffffffffffffffffffffffffffffffffffffffffffffffffff19168152600201827effffffffffffffffffffffffffffffffffffffffffffffffffffffffffffff19167effffffffffffffffffffffffffffffffffffffffffffffffffffffffffffff191681526001019550505050505060206040518083038160008661646e5a03f115156107fe57600080fd5b505060405180519050915060008461ffff161415610895576002600183600060405160200152604051808360ff1660ff167f010000000000000000000000000000000000000000000000000000000000000002815260010182600019166000191681526020019250505060206040518083038160008661646e5a03f1151561088557600080fd5b5050604051805190509a50610920565b600260018c84600060405160200152604051808460ff1660ff167f010000000000000000000000000000000000000000000000000000000000000002815260010183600019166000191681526020018260001916600019168152602001935050505060206040518083038160008661646e5a03f1151561091457600080fd5b5050604051805190509a505b601083018a0199508380600101945050610443565b60228e0151905060028b8a836304000000600060405160200152604051808560001916600019168152602001846fffffffffffffffffffffffffffffffff19166fffffffffffffffffffffffffffffffff19168152601001837bffffffffffffffffffffffffffffffffffffffffffffffffffffffff19167bffffffffffffffffffffffffffffffffffffffffffffffffffffffff191681526004018263ffffffff167c010000000000000000000000000000000000000000000000000000000002815260040194505050505060206040518083038160008661646e5a03f11515610a1f57600080fd5b5050604051805190509a50505050505050505050509193909250565b6020604051908101604052806000815250905600a165627a7a72305820615f839ad8ed151cfb6b03f97702174a566a1251f1836939d858e4c5b0fc18cf0029",
  "source": "pragma solidity ^0.4.15;\n\nlibrary JsmnSolLib {\n\n    enum JsmnType { UNDEFINED, OBJECT, ARRAY, STRING, PRIMITIVE }\n\n    uint constant RETURN_SUCCESS = 0;\n    uint constant RETURN_ERROR_INVALID_JSON = 1;\n    uint constant RETURN_ERROR_PART = 2;\n    uint constant RETURN_ERROR_NO_MEM = 3;\n\n    struct Token {\n        JsmnType jsmnType;\n        uint start;\n        bool startSet;\n        uint end;\n        bool endSet;\n        uint8 size;\n    }\n\n    struct Parser {\n        uint pos;\n        uint toknext;\n        int toksuper;\n    }\n\n    function init(uint length) internal returns (Parser, Token[]) {\n        Parser memory p = Parser(0, 0, -1);\n        Token[] memory t = new Token[](length);\n        return (p, t);\n    }\n\n    function allocateToken(Parser parser, Token[] tokens) internal returns (bool, Token) {\n        if (parser.toknext >= tokens.length) {\n            // no more space in tokens\n            return (false, tokens[tokens.length-1]);\n        }\n        Token memory token = Token(JsmnType.UNDEFINED, 0, false, 0, false, 0);\n        tokens[parser.toknext] = token;\n        parser.toknext++;\n        return (true, token);\n    }\n\n    function fillToken(Token token, JsmnType jsmnType, uint start, uint end) internal {\n        token.jsmnType = jsmnType;\n        token.start = start;\n        token.startSet = true;\n        token.end = end;\n        token.endSet = true;\n        token.size = 0;\n    }\n\n    function parseString(Parser parser, Token[] tokens, bytes s) internal returns (uint) {\n        uint start = parser.pos;\n        parser.pos++;\n\n        for (; parser.pos<s.length; parser.pos++) {\n            bytes1 c = s[parser.pos];\n\n            // Quote -> end of string\n            if (c == '\"') {\n                var (success, token) = allocateToken(parser, tokens);\n                if (!success) {\n                    parser.pos = start;\n                    return RETURN_ERROR_NO_MEM;\n                }\n                fillToken(token, JsmnType.STRING, start+1, parser.pos);\n                return RETURN_SUCCESS;\n            }\n\n            if (c == 92 && parser.pos + 1 < s.length) {\n                // handle escaped characters: skip over it\n                parser.pos++;\n                if (s[parser.pos] == '\\\"' || s[parser.pos] == '/' || s[parser.pos] == '\\\\'\n                    || s[parser.pos] == 'f' || s[parser.pos] == 'r' || s[parser.pos] == 'n'\n                    || s[parser.pos] == 'b' || s[parser.pos] == 't') {\n                        continue;\n                        } else {\n                            // all other values are INVALID\n                            parser.pos = start;\n                            return(RETURN_ERROR_INVALID_JSON);\n                        }\n                    }\n            }\n        parser.pos = start;\n        return RETURN_ERROR_PART;\n    }\n\n    function parsePrimitive(Parser parser, Token[] tokens, bytes s) internal returns (uint) {\n        bool found = false;\n        uint start = parser.pos;\n        byte c;\n        for (; parser.pos < s.length; parser.pos++) {\n            c = s[parser.pos];\n            if (c == ' ' || c == '\\t' || c == '\\n' || c == '\\r' || c == ','\n                || c == 0x7d || c == 0x5d) {\n                    found = true;\n                    break;\n            }\n            if (c < 32 || c > 127) {\n                parser.pos = start;\n                return RETURN_ERROR_INVALID_JSON;\n            }\n        }\n        if (!found) {\n            parser.pos = start;\n            return RETURN_ERROR_PART;\n        }\n\n        // found the end\n        var (success, token) = allocateToken(parser, tokens);\n        if (!success) {\n            parser.pos = start;\n            return RETURN_ERROR_NO_MEM;\n        }\n        fillToken(token, JsmnType.PRIMITIVE, start, parser.pos);\n        parser.pos--;\n        return RETURN_SUCCESS;\n    }\n\n    function parse(string json, uint numberElements) internal returns (uint, Token[], uint) {\n        bytes memory s = bytes(json);\n        var (parser, tokens) = init(numberElements);\n\n        // Token memory token;\n        uint r;\n        uint count = parser.toknext;\n        uint i;\n\n        for (; parser.pos<s.length; parser.pos++) {\n            bytes1 c = s[parser.pos];\n\n            // 0x7b, 0x5b opening curly parentheses or brackets\n            if (c == 0x7b || c == 0x5b) {\n                count++;\n                var (success, token)= allocateToken(parser, tokens);\n                if (!success) {\n                    return (RETURN_ERROR_NO_MEM, tokens, 0);\n                }\n                if (parser.toksuper != -1) {\n                    tokens[uint(parser.toksuper)].size++;\n                }\n                token.jsmnType = (c == 0x7b ? JsmnType.OBJECT : JsmnType.ARRAY);\n                token.start = parser.pos;\n                token.startSet = true;\n                parser.toksuper = int(parser.toknext - 1);\n                continue;\n            }\n\n            // closing curly parentheses or brackets\n            if (c == 0x7d || c == 0x5d) {\n                JsmnType tokenType = (c == 0x7d ? JsmnType.OBJECT : JsmnType.ARRAY);\n                bool isUpdated = false;\n                for (i=parser.toknext-1; i>=0; i--) {\n                    token = tokens[i];\n                    if (token.startSet && !token.endSet) {\n                        if (token.jsmnType != tokenType) {\n                            // found a token that hasn't been closed but from a different type\n                            return (RETURN_ERROR_INVALID_JSON, tokens, 0);\n                        }\n                        parser.toksuper = -1;\n                        tokens[i].end = parser.pos + 1;\n                        tokens[i].endSet = true;\n                        isUpdated = true;\n                        break;\n                    }\n                }\n                if (!isUpdated) {\n                    return (RETURN_ERROR_INVALID_JSON, tokens, 0);\n                }\n                for (; i>0; i--) {\n                    token = tokens[i];\n                    if (token.startSet && !token.endSet) {\n                        parser.toksuper = int(i);\n                        break;\n                    }\n                }\n\n                if (i==0) {\n                    token = tokens[i];\n                    if (token.startSet && !token.endSet) {\n                        parser.toksuper = uint128(i);\n                    }\n                }\n                continue;\n            }\n\n            // 0x42\n            if (c == '\"') {\n                r = parseString(parser, tokens, s);\n\n                if (r != RETURN_SUCCESS) {\n                    return (r, tokens, 0);\n                }\n                //JsmnError.INVALID;\n                count++;\n\t\t\t\tif (parser.toksuper != -1)\n\t\t\t\t\ttokens[uint(parser.toksuper)].size++;\n                continue;\n            }\n\n            // ' ', \\r, \\t, \\n\n            if (c == ' ' || c == 0x11 || c == 0x12 || c == 0x14) {\n                continue;\n            }\n\n            // 0x3a\n            if (c == ':') {\n                parser.toksuper = int(parser.toknext -1);\n                continue;\n            }\n\n            if (c == ',') {\n                if (parser.toksuper != -1\n                    && tokens[uint(parser.toksuper)].jsmnType != JsmnType.ARRAY\n                    && tokens[uint(parser.toksuper)].jsmnType != JsmnType.OBJECT) {\n                        for(i = parser.toknext-1; i>=0; i--) {\n                            if (tokens[i].jsmnType == JsmnType.ARRAY || tokens[i].jsmnType == JsmnType.OBJECT) {\n                                if (tokens[i].startSet && !tokens[i].endSet) {\n                                    parser.toksuper = int(i);\n                                    break;\n                                }\n                            }\n                        }\n                    }\n                continue;\n            }\n\n            // Primitive\n            if ((c >= '0' && c <= '9') || c == '-' || c == 'f' || c == 't' || c == 'n') {\n                if (parser.toksuper != -1) {\n                    token = tokens[uint(parser.toksuper)];\n                    if (token.jsmnType == JsmnType.OBJECT\n                        || (token.jsmnType == JsmnType.STRING && token.size != 0)) {\n                            return (RETURN_ERROR_INVALID_JSON, tokens, 0);\n                        }\n                }\n\n                r = parsePrimitive(parser, tokens, s);\n                if (r != RETURN_SUCCESS) {\n                    return (r, tokens, 0);\n                }\n                count++;\n                if (parser.toksuper != -1) {\n                    tokens[uint(parser.toksuper)].size++;\n                }\n                continue;\n            }\n\n            // printable char\n            if (c >= 0x20 && c <= 0x7e) {\n                return (RETURN_ERROR_INVALID_JSON, tokens, 0);\n            }\n        }\n\n        return (RETURN_SUCCESS, tokens, parser.toknext);\n    }\n\n    function getBytes(string json, uint start, uint end) internal returns (string) {\n        bytes memory s = bytes(json);\n        bytes memory result = new bytes(end-start);\n        for (uint i=start; i<end; i++) {\n            result[i-start] = s[i];\n        }\n        return string(result);\n    }\n\n    // parseInt\n    function parseInt(string _a) internal returns (int) {\n        return parseInt(_a, 0);\n    }\n\n    // parseInt(parseFloat*10^_b)\n    function parseInt(string _a, uint _b) internal returns (int) {\n        bytes memory bresult = bytes(_a);\n        int mint = 0;\n        bool decimals = false;\n        bool negative = false;\n        for (uint i=0; i<bresult.length; i++){\n            if ((i == 0) && (bresult[i] == '-')) {\n                negative = true;\n            }\n            if ((bresult[i] >= 48) && (bresult[i] <= 57)) {\n                if (decimals){\n                   if (_b == 0) break;\n                    else _b--;\n                }\n                mint *= 10;\n                mint += int(bresult[i]) - 48;\n            } else if (bresult[i] == 46) decimals = true;\n        }\n        if (_b > 0) mint *= int(10**_b);\n        if (negative) mint *= -1;\n        return mint;\n    }\n\n    function uint2str(uint i) internal returns (string){\n        if (i == 0) return \"0\";\n        uint j = i;\n        uint len;\n        while (j != 0){\n            len++;\n            j /= 10;\n        }\n        bytes memory bstr = new bytes(len);\n        uint k = len - 1;\n        while (i != 0){\n            bstr[k--] = byte(48 + i % 10);\n            i /= 10;\n        }\n        return string(bstr);\n    }\n\n    function parseBool(string _a) returns (bool) {\n        if (strCompare(_a, 'true') == 0) {\n            return true;\n        } else {\n            return false;\n        }\n    }\n\n    function strCompare(string _a, string _b) internal returns (int) {\n        bytes memory a = bytes(_a);\n        bytes memory b = bytes(_b);\n        uint minLength = a.length;\n        if (b.length < minLength) minLength = b.length;\n        for (uint i = 0; i < minLength; i ++)\n            if (a[i] < b[i])\n                return -1;\n            else if (a[i] > b[i])\n                return 1;\n        if (a.length < b.length)\n            return -1;\n        else if (a.length > b.length)\n            return 1;\n        else\n            return 0;\n    }\n\n}\n\nlibrary bytesutils {\n    struct slice {\n        uint _len;\n        uint _ptr;\n    }\n\n    function memcpy(uint dest, uint src, uint len) private {\n        // Copy word-length chunks while possible\n        for(; len >= 32; len -= 32) {\n            assembly {\n                mstore(dest, mload(src))\n            }\n            dest += 32;\n            src += 32;\n        }\n\n        // Copy remaining bytes\n        uint mask = 256 ** (32 - len) - 1;\n        assembly {\n            let srcpart := and(mload(src), not(mask))\n            let destpart := and(mload(dest), mask)\n            mstore(dest, or(destpart, srcpart))\n        }\n    }\n\n    /*\n     * @dev Returns a slice containing the entire bytes.\n     * @param self The bytes to make a slice from.\n     * @return A newly allocated slice containing the entire bytes.\n     */\n    function toSlice(bytes self) internal returns (slice) {\n        uint ptr;\n        assembly {\n            ptr := add(self, 0x20)\n        }\n        return slice(self.length, ptr);\n    }\n\n    function addOffset(slice self, uint32 offset) internal returns (slice) {\n        require(offset <= self._len);\n        self._ptr += offset;\n        self._len -= offset;\n        return self;\n    }\n\n    /*\n     * @dev Returns a slice containing the entire bytes.\n     * @param self The bytes to make a slice from.\n     * @param offset The offset within the bytestring.\n     * @return A newly allocated slice containing the entire bytes.\n     */\n    function toSlice(bytes self, uint32 offset) internal returns (slice) {\n        slice memory ret = toSlice(self);\n        return addOffset(ret, offset);\n    }\n\n\n    /*\n     * @dev Returns the length of a null-terminated bytes32 string.\n     * @param self The value to find the length of.\n     * @return The length of the string, from 0 to 32.\n     */\n    function len(bytes32 self) internal returns (uint) {\n        uint ret;\n        if (self == 0)\n            return 0;\n        if (self & 0xffffffffffffffffffffffffffffffff == 0) {\n            ret += 16;\n            self = bytes32(uint(self) / 0x100000000000000000000000000000000);\n        }\n        if (self & 0xffffffffffffffff == 0) {\n            ret += 8;\n            self = bytes32(uint(self) / 0x10000000000000000);\n        }\n        if (self & 0xffffffff == 0) {\n            ret += 4;\n            self = bytes32(uint(self) / 0x100000000);\n        }\n        if (self & 0xffff == 0) {\n            ret += 2;\n            self = bytes32(uint(self) / 0x10000);\n        }\n        if (self & 0xff == 0) {\n            ret += 1;\n        }\n        return 32 - ret;\n    }\n\n    /*\n     * @dev Returns a slice containing the entire bytes32, interpreted as a\n     *      null-termintaed utf-8 string.\n     * @param self The bytes32 value to convert to a slice.\n     * @return A new slice containing the value of the input argument up to the\n     *         first null.\n     */\n    function toSliceB32(bytes32 self) internal returns (slice ret) {\n        // Allocate space for `self` in memory, copy it there, and point ret at it\n        assembly {\n            let ptr := mload(0x40)\n            mstore(0x40, add(ptr, 0x20))\n            mstore(ptr, self)\n            mstore(add(ret, 0x20), ptr)\n        }\n        ret._len = len(self);\n    }\n\n    /*\n     * @dev Returns a new slice containing the same data as the current slice.\n     * @param self The slice to copy.\n     * @return A new slice containing the same data as `self`.\n     */\n    function copy(slice self) internal returns (slice) {\n        return slice(self._len, self._ptr);\n    }\n\n    /*\n     * @dev Copies a slice to a new bytestring.\n     * @param self The slice to copy.\n     * @return A newly allocated bytestring containing the slice's text.\n     */\n    function toBytes(slice self) internal returns (bytes) {\n        var ret = new bytes(self._len);\n        uint retptr;\n        assembly { retptr := add(ret, 32) }\n\n        memcpy(retptr, self._ptr, self._len);\n        return ret;\n    }\n\n\n    /*\n     * @dev Copies a slice to a new string.\n     * @param self The slice to copy.\n     * @return A newly allocated string containing the slice's text.\n     */\n    function toString(slice self) internal returns (string) {\n        var ret = new string(self._len);\n        uint retptr;\n        assembly { retptr := add(ret, 32) }\n\n        memcpy(retptr, self._ptr, self._len);\n        return ret;\n    }\n\n\n\n    /*\n     * @dev Returns the length in bytes of the slice.\n     * @param self The slice to operate on.\n     * @return The length of the slice in bytes.\n     */\n    function len(slice self) internal returns (uint) {\n        return self._len;\n    }\n\n    /*\n     * @dev Returns true if the slice is empty (has a length of 0).\n     * @param self The slice to operate on.\n     * @return True if the slice is empty, False otherwise.\n     */\n    function empty(slice self) internal returns (bool) {\n        return self._len == 0;\n    }\n\n    /*\n     * @dev Returns a positive number if `other` comes lexicographically after\n     *      `self`, a negative number if it comes before, or zero if the\n     *      contents of the two slices are equal. Comparison is done per-rune,\n     *      on unicode codepoints.\n     * @param self The first slice to compare.\n     * @param other The second slice to compare.\n     * @return The result of the comparison.\n     */\n    function compare(slice self, slice other) internal returns (int) {\n        uint shortest = self._len;\n        if (other._len < self._len)\n            shortest = other._len;\n\n        var selfptr = self._ptr;\n        var otherptr = other._ptr;\n        for (uint idx = 0; idx < shortest; idx += 32) {\n            uint a;\n            uint b;\n            assembly {\n                a := mload(selfptr)\n                b := mload(otherptr)\n            }\n            if (a != b) {\n                // Mask out irrelevant bytes and check again\n                uint mask = ~(2 ** (8 * (32 - shortest + idx)) - 1);\n                var diff = (a & mask) - (b & mask);\n                if (diff != 0)\n                    return int(diff);\n            }\n            selfptr += 32;\n            otherptr += 32;\n        }\n        return int(self._len) - int(other._len);\n    }\n\n    /*\n     * @dev Returns true if the two slices contain the same text.\n     * @param self The first slice to compare.\n     * @param self The second slice to compare.\n     * @return True if the slices are equal, false otherwise.\n     */\n    function equals(slice self, slice other) internal returns (bool) {\n        return compare(self, other) == 0;\n    }\n\n    /*\n     * @dev Extracts the first rune in the slice into `rune`, advancing the\n     *      slice to point to the next rune and returning `self`.\n     * @param self The slice to operate on.\n     * @param rune The slice that will contain the first rune.\n     * @return `rune`.\n     */\n    function nextRune(slice self, slice rune) internal returns (slice) {\n        rune._ptr = self._ptr;\n\n        if (self._len == 0) {\n            rune._len = 0;\n            return rune;\n        }\n\n\t\t// Byte runes are always of length 1\n        uint len = 1;\n\n        self._ptr += len;\n        self._len -= len;\n        rune._len = len;\n        return rune;\n    }\n\n    /*\n     * @dev Returns the first rune in the slice, advancing the slice to point\n     *      to the next rune.\n     * @param self The slice to operate on.\n     * @return A slice containing only the first rune from `self`.\n     */\n    function nextRune(slice self) internal returns (slice ret) {\n        nextRune(self, ret);\n    }\n\n    /*\n     * @dev Returns the number of the first codepoint in the slice.\n     * @param self The slice to operate on.\n     * @return The number of the first codepoint in the slice.\n     */\n    function ord(slice self) internal returns (uint ret) {\n        if (self._len == 0) {\n            return 0;\n        }\n\n        uint word;\n        uint div = 2 ** 248;\n\n        // Load the rune into the MSBs of b\n        assembly { word:= mload(mload(add(self, 32))) }\n        ret = word / div;\n\n        return ret;\n    }\n\n    /*\n     * @dev Returns the keccak-256 hash of the slice.\n     * @param self The slice to hash.\n     * @return The hash of the slice.\n     */\n    function keccak(slice self) internal returns (bytes32 ret) {\n        assembly {\n            ret := sha3(mload(add(self, 32)), mload(self))\n        }\n    }\n\n    /*\n     * @dev Returns the sha-256 hash of the slice.\n     * @param self The slice to hash.\n     * @return The hash of the slice.\n     */\n    function slicesha256(slice self) internal returns (bytes32) {\n        bytes memory x = toBytes(self);\n        return sha256(x);\n    }\n\n\n    /*\n     * @dev Returns true if `self` starts with `needle`.\n     * @param self The slice to operate on.\n     * @param needle The slice to search for.\n     * @return True if the slice starts with the provided text, false otherwise.\n     */\n    function startsWith(slice self, slice needle) internal returns (bool) {\n        if (self._len < needle._len) {\n            return false;\n        }\n\n        if (self._ptr == needle._ptr) {\n            return true;\n        }\n\n        bool equal;\n        assembly {\n            let len := mload(needle)\n            let selfptr := mload(add(self, 0x20))\n            let needleptr := mload(add(needle, 0x20))\n            equal := eq(sha3(selfptr, len), sha3(needleptr, len))\n        }\n        return equal;\n    }\n\n    /*\n     * @dev If `self` starts with `needle`, `needle` is removed from the\n     *      beginning of `self`. Otherwise, `self` is unmodified.\n     * @param self The slice to operate on.\n     * @param needle The slice to search for.\n     * @return `self`\n     */\n    function beyond(slice self, slice needle) internal returns (slice) {\n        if (self._len < needle._len) {\n            return self;\n        }\n\n        bool equal = true;\n        if (self._ptr != needle._ptr) {\n            assembly {\n                let len := mload(needle)\n                let selfptr := mload(add(self, 0x20))\n                let needleptr := mload(add(needle, 0x20))\n                equal := eq(sha3(selfptr, len), sha3(needleptr, len))\n            }\n        }\n\n        if (equal) {\n            self._len -= needle._len;\n            self._ptr += needle._len;\n        }\n\n        return self;\n    }\n\n    /*\n     * @dev Returns true if the slice ends with `needle`.\n     * @param self The slice to operate on.\n     * @param needle The slice to search for.\n     * @return True if the slice starts with the provided text, false otherwise.\n     */\n    function endsWith(slice self, slice needle) internal returns (bool) {\n        if (self._len < needle._len) {\n            return false;\n        }\n\n        var selfptr = self._ptr + self._len - needle._len;\n\n        if (selfptr == needle._ptr) {\n            return true;\n        }\n\n        bool equal;\n        assembly {\n            let len := mload(needle)\n            let needleptr := mload(add(needle, 0x20))\n            equal := eq(sha3(selfptr, len), sha3(needleptr, len))\n        }\n\n        return equal;\n    }\n\n    /*\n     * @dev If `self` ends with `needle`, `needle` is removed from the\n     *      end of `self`. Otherwise, `self` is unmodified.\n     * @param self The slice to operate on.\n     * @param needle The slice to search for.\n     * @return `self`\n     */\n    function until(slice self, slice needle) internal returns (slice) {\n        if (self._len < needle._len) {\n            return self;\n        }\n\n        var selfptr = self._ptr + self._len - needle._len;\n        bool equal = true;\n        if (selfptr != needle._ptr) {\n            assembly {\n                let len := mload(needle)\n                let needleptr := mload(add(needle, 0x20))\n                equal := eq(sha3(selfptr, len), sha3(needleptr, len))\n            }\n        }\n\n        if (equal) {\n            self._len -= needle._len;\n        }\n\n        return self;\n    }\n\n    // Returns the memory address of the first byte of the first occurrence of\n    // `needle` in `self`, or the first byte after `self` if not found.\n    function findPtr(uint selflen, uint selfptr, uint needlelen, uint needleptr) private returns (uint) {\n        uint ptr;\n        uint idx;\n\n        if (needlelen <= selflen) {\n            if (needlelen <= 32) {\n                // Optimized assembly for 68 gas per byte on short strings\n                assembly {\n                    let mask := not(sub(exp(2, mul(8, sub(32, needlelen))), 1))\n                    let needledata := and(mload(needleptr), mask)\n                    let end := add(selfptr, sub(selflen, needlelen))\n                    ptr := selfptr\n                    loop:\n                    jumpi(exit, eq(and(mload(ptr), mask), needledata))\n                    ptr := add(ptr, 1)\n                    jumpi(loop, lt(sub(ptr, 1), end))\n                    ptr := add(selfptr, selflen)\n                    exit:\n                }\n                return ptr;\n            } else {\n                // For long needles, use hashing\n                bytes32 hash;\n                assembly { hash := sha3(needleptr, needlelen) }\n                ptr = selfptr;\n                for (idx = 0; idx <= selflen - needlelen; idx++) {\n                    bytes32 testHash;\n                    assembly { testHash := sha3(ptr, needlelen) }\n                    if (hash == testHash)\n                        return ptr;\n                    ptr += 1;\n                }\n            }\n        }\n        return selfptr + selflen;\n    }\n\n    // Returns the memory address of the first byte after the last occurrence of\n    // `needle` in `self`, or the address of `self` if not found.\n    function rfindPtr(uint selflen, uint selfptr, uint needlelen, uint needleptr) private returns (uint) {\n        uint ptr;\n\n        if (needlelen <= selflen) {\n            if (needlelen <= 32) {\n                // Optimized assembly for 69 gas per byte on short strings\n                assembly {\n                    let mask := not(sub(exp(2, mul(8, sub(32, needlelen))), 1))\n                    let needledata := and(mload(needleptr), mask)\n                    ptr := add(selfptr, sub(selflen, needlelen))\n                    loop:\n                    jumpi(ret, eq(and(mload(ptr), mask), needledata))\n                    ptr := sub(ptr, 1)\n                    jumpi(loop, gt(add(ptr, 1), selfptr))\n                    ptr := selfptr\n                    jump(exit)\n                    ret:\n                    ptr := add(ptr, needlelen)\n                    exit:\n                }\n                return ptr;\n            } else {\n                // For long needles, use hashing\n                bytes32 hash;\n                assembly { hash := sha3(needleptr, needlelen) }\n                ptr = selfptr + (selflen - needlelen);\n                while (ptr >= selfptr) {\n                    bytes32 testHash;\n                    assembly { testHash := sha3(ptr, needlelen) }\n                    if (hash == testHash)\n                        return ptr + needlelen;\n                    ptr -= 1;\n                }\n            }\n        }\n        return selfptr;\n    }\n\n    /*\n     * @dev Modifies `self` to contain everything from the first occurrence of\n     *      `needle` to the end of the slice. `self` is set to the empty slice\n     *      if `needle` is not found.\n     * @param self The slice to search and modify.\n     * @param needle The text to search for.\n     * @return `self`.\n     */\n    function find(slice self, slice needle) internal returns (slice) {\n        uint ptr = findPtr(self._len, self._ptr, needle._len, needle._ptr);\n        self._len -= ptr - self._ptr;\n        self._ptr = ptr;\n        return self;\n    }\n\n    /*\n     * @dev Modifies `self` to contain the part of the string from the start of\n     *      `self` to the end of the last occurrence of `needle`. If `needle`\n     *      is not found, `self` is set to the empty slice.\n     * @param self The slice to search and modify.\n     * @param needle The text to search for.\n     * @return `self`.\n     */\n    function rfind(slice self, slice needle) internal returns (slice) {\n        uint ptr = rfindPtr(self._len, self._ptr, needle._len, needle._ptr);\n        self._len = ptr - self._ptr;\n        return self;\n    }\n\n    /*\n     * @dev Splits the slice, setting `self` to everything after the first\n     *      occurrence of `needle`, and `token` to everything before it. If\n     *      `needle` does not occur in `self`, `self` is set to the empty slice,\n     *      and `token` is set to the entirety of `self`.\n     * @param self The slice to split.\n     * @param needle The text to search for in `self`.\n     * @param token An output parameter to which the first token is written.\n     * @return `token`.\n     */\n    function split(slice self, slice needle, slice token) internal returns (slice) {\n        uint ptr = findPtr(self._len, self._ptr, needle._len, needle._ptr);\n        token._ptr = self._ptr;\n        token._len = ptr - self._ptr;\n        if (ptr == self._ptr + self._len) {\n            // Not found\n            self._len = 0;\n        } else {\n            self._len -= token._len + needle._len;\n            self._ptr = ptr + needle._len;\n        }\n        return token;\n    }\n\n    /*\n     * @dev Splits the slice, setting `self` to everything after the first\n     *      occurrence of `needle`, and returning everything before it. If\n     *      `needle` does not occur in `self`, `self` is set to the empty slice,\n     *      and the entirety of `self` is returned.\n     * @param self The slice to split.\n     * @param needle The text to search for in `self`.\n     * @return The part of `self` up to the first occurrence of `delim`.\n     */\n    function split(slice self, slice needle) internal returns (slice token) {\n        split(self, needle, token);\n    }\n\n    /*\n     * @dev Splits the slice, setting `self` to everything before the last\n     *      occurrence of `needle`, and `token` to everything after it. If\n     *      `needle` does not occur in `self`, `self` is set to the empty slice,\n     *      and `token` is set to the entirety of `self`.\n     * @param self The slice to split.\n     * @param needle The text to search for in `self`.\n     * @param token An output parameter to which the first token is written.\n     * @return `token`.\n     */\n    function rsplit(slice self, slice needle, slice token) internal returns (slice) {\n        uint ptr = rfindPtr(self._len, self._ptr, needle._len, needle._ptr);\n        token._ptr = ptr;\n        token._len = self._len - (ptr - self._ptr);\n        if (ptr == self._ptr) {\n            // Not found\n            self._len = 0;\n        } else {\n            self._len -= token._len + needle._len;\n        }\n        return token;\n    }\n\n    /*\n     * @dev Splits the slice, setting `self` to everything before the last\n     *      occurrence of `needle`, and returning everything after it. If\n     *      `needle` does not occur in `self`, `self` is set to the empty slice,\n     *      and the entirety of `self` is returned.\n     * @param self The slice to split.\n     * @param needle The text to search for in `self`.\n     * @return The part of `self` after the last occurrence of `delim`.\n     */\n    function rsplit(slice self, slice needle) internal returns (slice token) {\n        rsplit(self, needle, token);\n    }\n\n    /*\n     * @dev Counts the number of nonoverlapping occurrences of `needle` in `self`.\n     * @param self The slice to search.\n     * @param needle The text to search for in `self`.\n     * @return The number of occurrences of `needle` found in `self`.\n     */\n    function count(slice self, slice needle) internal returns (uint count) {\n        uint ptr = findPtr(self._len, self._ptr, needle._len, needle._ptr) + needle._len;\n        while (ptr <= self._ptr + self._len) {\n            count++;\n            ptr = findPtr(self._len - (ptr - self._ptr), ptr, needle._len, needle._ptr) + needle._len;\n        }\n    }\n\n    /*\n     * @dev Returns True if `self` contains `needle`.\n     * @param self The slice to search.\n     * @param needle The text to search for in `self`.\n     * @return True if `needle` is found in `self`, false otherwise.\n     */\n    function contains(slice self, slice needle) internal returns (bool) {\n        return rfindPtr(self._len, self._ptr, needle._len, needle._ptr) != self._ptr;\n    }\n\n    /*\n     * @dev Returns a newly allocated bytestring containing the concatenation of\n     *      `self` and `other`.\n     * @param self The first slice to concatenate.\n     * @param other The second slice to concatenate.\n     * @return The concatenation of the two bytestrings.\n     */\n    function concat(slice self, slice other) internal returns (bytes) {\n        var ret = new bytes(self._len + other._len);\n        uint retptr;\n        assembly { retptr := add(ret, 32) }\n        memcpy(retptr, self._ptr, self._len);\n        memcpy(retptr + self._len, other._ptr, other._len);\n        return ret;\n    }\n\n    /*\n     * @dev Truncates a slice to a specified new length.\n     * @param self The slice to truncate.\n     * @param new_len The new length.\n     * @return The truncated slice.\n     */\n    function truncate(slice self, uint new_len) internal returns (slice){\n        if(self._len > new_len){\n            self._len = new_len;\n        }\n        return self;\n    }\n\n\n    /*\n     * @dev Joins an array of slices, using `self` as a delimiter, returning a\n     *      newly allocated bytestring.\n     * @param self The delimiter to use.\n     * @param parts A list of slices to join.\n     * @return A newly allocated bytestring containing all the slices in `parts`,\n     *         joined with `self`.\n     */\n    function join(slice self, slice[] parts) internal returns (bytes) {\n        if (parts.length == 0)\n            return \"\";\n\n        uint len = self._len * (parts.length - 1);\n        for(uint i = 0; i < parts.length; i++)\n            len += parts[i]._len;\n\n        var ret = new bytes(len);\n        uint retptr;\n        assembly { retptr := add(ret, 32) }\n\n        for(i = 0; i < parts.length; i++) {\n            memcpy(retptr, parts[i]._ptr, parts[i]._len);\n            retptr += parts[i]._len;\n            if (i < parts.length - 1) {\n                memcpy(retptr, self._ptr, self._len);\n                retptr += self._len;\n            }\n        }\n\n        return ret;\n    }\n}\n\n// Library for secp256r1\nlibrary ECMath {\n\n\n  //curve parameters secp256r1\n  uint256 constant a=115792089210356248762697446949407573530086143415290314195533631308867097853948;\n  uint256 constant b=41058363725152142129326129780047268409114441015993725554835256314039467401291;\n  uint256 constant gx=48439561293906451759052585252797914202762949526041747995844080717082404635286;\n  uint256 constant gy=36134250956749795798585127919587881956611106672985015071877198253568414405109;\n  uint256 constant p=115792089210356248762697446949407573530086143415290314195533631308867097853951;\n  uint256 constant n=115792089210356248762697446949407573529996955224135760342422259061068512044369;\n  uint256 constant h=1;\n\n\n  function ecdsaverify(uint256 qx, uint256 qy, uint256 e, uint256 r, uint256 s) returns (bool) {\n\n    if (!isPoint(qx,qy)) {\n      return false;\n    }\n\n    //temporary variables\n    uint256 w;\n    uint256 u1;\n    uint256 u2;\n    uint256[3] memory T1;\n    uint256[3] memory T2;\n    w=invmod(s,n);\n    u1=mulmod(e,w,n);\n    u2=mulmod(r,w,n);\n    T1=ecmul([gx,gy,1],u1);\n    T2=ecmul([qx,qy,1],u2);\n    T2=ecadd(T1,T2);\n    if (r==JtoA(T2)[0]) {\n      return true;\n    }\n    return false;\n  }\n\n  //function checks if point (x1,y1) is on curve, x1 and y1 affine coordinate parameters\n  function isPoint(uint256 x1, uint256 y1) private returns (bool) {\n    //point fulfills y^2=x^3+ax+b?\n    if (mulmod(y1,y1,p) == addmod(mulmod(x1,mulmod(x1,x1,p),p),addmod(mulmod(a,x1,p),b,p),p)) {\n      return (true);\n    }\n    else {\n      return (false);\n    }\n  }\n\n  // point addition for elliptic curve in jacobian coordinates\n  // formula from https://en.wikibooks.org/wiki/Cryptography/Prime_Curve/Jacobian_Coordinates\n  function ecadd(uint256[3] P, uint256[3] Q) private returns (uint256[3] R) {\n\n    uint256 u1;\n    uint256 u2;\n    uint256 s1;\n    uint256 s2;\n\n    if (Q[0]==0 && Q[1]==0 && Q[2]==0) {\n      return P;\n    }\n\n    u1 = mulmod(P[0],mulmod(Q[2],Q[2],p),p);\n    u2 = mulmod(Q[0],mulmod(P[2],P[2],p),p);\n    s1 = mulmod(P[1],mulmod(mulmod(Q[2],Q[2],p),Q[2],p),p);\n    s2 = mulmod(Q[1],mulmod(mulmod(P[2],P[2],p),P[2],p),p);\n\n    if (u1==u2) {\n      if (s1 != s2) {\n        R[0]=1;\n        R[1]=1;\n        R[2]=0;\n        return R;\n      }\n      else {\n        return ecdouble(P);\n      }\n    }\n\n    uint256 h;\n    uint256 r;\n\n    h = addmod(u2,(p-u1),p);\n    r = addmod(s2,(p-s1),p);\n\n    R[0] = addmod(addmod(mulmod(r,r,p),(p-mulmod(h,mulmod(h,h,p),p)),p),(p-mulmod(2,mulmod(u1,mulmod(h,h,p),p),p)),p);\n    R[1] = addmod(mulmod(r,addmod(mulmod(u1,mulmod(h,h,p),p),(p-R[0]),p),p),(p-mulmod(s1,mulmod(h,mulmod(h,h,p),p),p)),p);\n    R[2] = mulmod(h,mulmod(P[2],Q[2],p),p);\n\n    return (R);\n  }\n\n  //point doubling for elliptic curve in jacobian coordinates\n  //formula from https://en.wikibooks.org/wiki/Cryptography/Prime_Curve/Jacobian_Coordinates\n  function ecdouble(uint256[3] P) private returns(uint256[3] R){\n\n    //return point at infinity\n    if (P[1]==0) {\n      R[0]=1;\n      R[1]=1;\n      R[2]=0;\n      return (R);\n    }\n\n    uint256 m;\n    uint256 s;\n\n    s = mulmod(4,mulmod(P[0],mulmod(P[1],P[1],p),p),p);\n    m = addmod(mulmod(3,mulmod(P[0],P[0],p),p),mulmod(a,mulmod(mulmod(P[2],P[2],p),mulmod(P[2],P[2],p),p),p),p);\n    R[0] = addmod(mulmod(m,m,p),(p-mulmod(s,2,p)),p);\n    R[1] = addmod(mulmod(m,addmod(s,(p-R[0]),p),p),(p-mulmod(8,mulmod(mulmod(P[1],P[1],p),mulmod(P[1],P[1],p),p),p)),p);\n    R[2] = mulmod(2,mulmod(P[1],P[2],p),p);\n\n    return (R);\n\n  }\n\n  // function for elliptic curve multiplication in jacobian coordinates using Double-and-add method\n  function ecmul(uint256[3] P, uint256 d) private returns (uint256[3] R) {\n\n    R[0]=0;\n    R[1]=0;\n    R[2]=0;\n\n    //return (0,0) if d=0 or (x1,y1)=(0,0)\n    if (d == 0 || ((P[0]==0) && (P[1]==0)) ) {\n      return (R);\n    }\n    uint256[3] memory T;\n    T[0]=P[0]; //x-coordinate temp\n    T[1]=P[1]; //y-coordinate temp\n    T[2]=P[2]; //z-coordiante temp\n\n    while (d != 0) {\n      if ((d & 1) == 1) {  //if last bit is 1 add T to result\n        R = ecadd(T,R);\n      }\n      T = ecdouble(T);    //double temporary coordinates\n      d=d/2;              //\"cut off\" last bit\n    }\n\n    return R;\n  }\n\n  //jacobian to affine coordinates transfomration\n  function JtoA(uint256[3] P) private returns (uint256[2] Pnew) {\n    uint zInv = invmod(P[2],p);\n    uint zInv2 = mulmod(zInv, zInv, p);\n    Pnew[0] = mulmod(P[0], zInv2, p);\n    Pnew[1] = mulmod(P[1], mulmod(zInv,zInv2,p), p);\n  }\n\n  //computing inverse by using euclidean algorithm\n  function invmod(uint256 a, uint p) private returns(uint256 invA) {\n    uint256 t=0;\n    uint256 newT=1;\n    uint256 r=p;\n    uint256 newR=a;\n    uint256 q;\n    while (newR != 0) {\n      q = r / newR;\n\n      (t, newT) = (newT, addmod(t , (p - mulmod(q, newT,p)) , p));\n      (r, newR) = (newR, r - q * newR );\n    }\n\n    return t;\n  }\n\n}\n\nlibrary tlsnutils{\n\n    using bytesutils for *;\n\n    /*\n     * @dev Returns the complete conversation part of one peer (all generator records).\n     * @param proof The proof.\n     * @param conversation_part 0 = Requester(Client), 1 = Generator(Server).\n     * @return The response as a bytestring.\n    */\n    function getConversationPart(bytes memory proof, bytes1 conversation_part) private returns(bytes){\n        bytes memory response = \"\";\n        uint16 readPos = 96;\n        // Skipping the certificate chain\n        readPos += uint16(proof[26])+256*uint16(proof[27]);\n        bytes1 generator_originated;\n        // Parse one record after another ( i < num_proof_nodes )\n        for(uint16 i = 0; i < uint16(proof[6])+256*uint16(proof[7]); i++){\n\n            // Assume the request is in the first record\n            bytes2 len_record; // Length of the record\n            assembly { len_record := mload(add(proof,add(readPos,33))) }\n\n            uint16 tmplen = uint16(len_record[0])+256*uint16(len_record[1]);\n\n            generator_originated = proof[readPos+3];\n\n            // Skip node, type, content len and generator info\n            readPos += 4;\n\n            if(generator_originated == conversation_part){\n                var chunk = proof.toSlice(readPos).truncate(tmplen);\n                response = response.toSlice().concat(chunk);\n            }\n            readPos += tmplen + 16;\n        }\n        return response;\n    }\n\n\n\n    /*\n     * @dev Returns the complete request (all requester records).\n     * @param proof The proof.\n     * @return The request as a bytestring.\n    */\n    function getRequest(bytes memory proof) internal returns(bytes){\n        return getConversationPart(proof, 0);\n    }\n\n\n    /*\n     * @dev Returns the complete response (all generator records).\n     * @param proof The proof.\n     * @return The response as a bytestring.\n    */\n    function getResponse(bytes memory proof) internal returns(bytes){\n        return getConversationPart(proof, 1);\n    }\n\n\n\n    /*\n     * @dev Returns the HTTP body.\n     * @param proof The proof.\n     * @return The HTTP body in case the request was valid. (200 OK)\n    */\n    function getHTTPBody(bytes memory proof) internal returns(bytes){\n        bytes memory response = getResponse(proof);\n        bytesutils.slice memory code = response.toSlice().truncate(15);\n        require(code.equals(\"HTTP/1.1 200 OK\".toSlice()));\n        bytesutils.slice memory body = response.toSlice().find(\"\\r\\n\\r\\n\".toSlice());\n        body.addOffset(4);\n        return body.toBytes();\n    }\n\n\n    /*\n     * @dev Returns HTTP Host inside the request\n     * @param proof The proof.\n     * @return The Host as a bytestring.\n    */\n    function getHost(bytes memory proof) internal returns(bytes){\n        bytesutils.slice memory request = getRequest(proof).toSlice();\n        // Search in Headers\n        request = request.split(\"\\r\\n\\r\\n\".toSlice());\n        // Find host header\n        request.find(\"Host:\".toSlice());\n        request.addOffset(5);\n        // Until newline\n        request = request.split(\"\\r\\n\".toSlice());\n        while(request.startsWith(\" \".toSlice())){\n            request.addOffset(1);\n        }\n\t\trequire(request.len() > 0);\n        return request.toBytes();\n    }\n\n    /*\n     * @dev Returns the requested URL for HTTP\n     * @param proof The proof.\n     * @return The request as a bytestring. Empty string on error.\n    */\n    function getHTTPRequestURL(bytes memory proof) internal returns(bytes){\n        bytes memory request = getRequest(proof);\n        bytesutils.slice memory slice = request.toSlice();\n        bytesutils.slice memory delim = \" \".toSlice();\n        // Check the method is GET\n        bytesutils.slice memory method = slice.split(delim);\n        require(method.equals(\"GET\".toSlice()));\n        // Return the URL\n        return slice.split(delim).toBytes();\n    }\n\n    /*\n     * @dev Verify a proof signed by tls-n.org.\n     * @param proof The proof.\n     * @return True iff valid.\n    */\n\tfunction verifyProof(bytes memory proof) returns(bool) {\n\t\tuint256 qx = 0x0de2583dc1b70c4d17936f6ca4d2a07aa2aba06b76a97e60e62af286adc1cc09; //public key x-coordinate signer\n\t\tuint256 qy = 0x68ba8822c94e79903406a002f4bc6a982d1b473f109debb2aa020c66f642144a; //public key y-coordinate signer\n\t\treturn verifyProof(proof, qx, qy);\n\t}\n\n    /*\n     * @dev Verify a proof signed by the specified key.\n     * @param proof The proof.\n     * @return True iff valid.\n    */\n\tfunction verifyProof(bytes memory proof, uint256 qx, uint256 qy) returns(bool) {\n\t\tbytes32 m; // Evidence Hash in bytes32\n\t\tuint256 e; // Evidence Hash in uint256\n\t\tuint256 sig_r; //signature parameter\n\t\tuint256 sig_s; //signature parameter\n\n\t\t// Returns ECC signature parts and the evidence hash\n\t\t(sig_r, sig_s, m) = parseProof(proof);\n\n\t\t// Convert evidence hash to uint\n\t\te = uint256(m);\n\n\t\t// Verify signature\n\t\treturn ECMath.ecdsaverify(qx, qy, e, sig_r, sig_s);\n\n\t}\n\n    /*\n     * @dev Parses the provided proof and returns the signature parts and the evidence hash.\n\t * For 64-byte ECC proofs with SHA256.\n     * @param proof The proof.\n     * @return sig_r, sig_s: signature parts and hashchain: the final evidence hash.\n    */\n  function parseProof(bytes memory proof) returns(uint256 sig_r, uint256 sig_s, bytes32 hashchain) {\n\n      uint16 readPos = 0; // Initialize index in proof bytes array\n      bytes16 times; // Contains Timestamps for signature validation\n\t  bytes2 len_record; // Length of the record\n\t  bytes1 generator_originated; // Boolean whether originated by generator\n\t  bytes memory chunk; // One chunk for hashing\n\t  bytes16 saltsecret; // Salt secret from proof\n\n      // Parse times\n      assembly {\n        times := mload(add(proof, 40))\n      }\n      readPos += 32; //update readPos, skip parameters\n\n    assembly {\n        sig_r := mload(add(proof,64))\n        sig_s := mload(add(proof,96))\n\t    readPos := add(readPos, 64)\n    }\n\n      // Skipping the certificate chain\n      readPos += uint16(proof[26])+256*uint16(proof[27]);\n\n      // Parse one record after another ( i < num_proof_nodes )\n\t  for(uint16 i = 0; i < uint16(proof[6])+256*uint16(proof[7]); i++){\n\t\t\t// Get the Record length as a byte array\n\t\t\tassembly { len_record := mload(add(proof,add(readPos,33))) }\n\t\t\t// Convert the record length into a number\n\t\t\tuint16 tmplen = uint16(len_record[0])+256*uint16(len_record[1]);\n\t\t\t// Parse generator information\n\t\t\tgenerator_originated = proof[readPos+3];\n\t\t\t// Update readPos\n\t\t\treadPos += 4;\n\t\t\t// Set chunk pointer\n\t\t\tassembly { chunk := add(proof,readPos) }\n\t\t\t// Set length of chunks\n\t\t\tassembly { mstore(chunk, tmplen) }\n\t\t\t// Load saltsecret\n\t\t\tassembly { saltsecret := mload(add(proof,add(readPos,add(tmplen,32)))) }\n\t\t\t// Root hash\n\t\t\tbytes32 hash = sha256(saltsecret,chunk,uint8(0),len_record,generator_originated);\n\t\t\t// Hash chain\n\t\t\tif(i == 0){\n\t\t\t\thashchain = sha256(uint8(1),hash);\n\t\t\t}else{\n\t\t\t\thashchain = sha256(uint8(1),hashchain,hash);\n\t\t\t}\n\t\t\t// Jump over record and salt secret\n\t\t\treadPos += tmplen + 16;\n\t\t}\n\t\t// Compute Evidence Hash\n\t\t// Load chunk size and salt size\n\t\tbytes4 test; // Temporarily contains salt size and chunk size\n\t\tassembly { test := mload(add(proof,34)) }\n\t\t// Compute final hash chain\n\t\thashchain = sha256(hashchain, times, test, 0x04000000);\n    }\n}\n\ncontract FootballBetting {\n  /***********************************/\n  /******* CONTRACT ATTRIBUTES *******/\n  /***********************************/\n\n  struct Bet {\n    uint betID;\n    address proposer;\n    address acceptor;\n    bool accepted;\n    uint acceptorAmount;\n    uint proposerAmount;\n    uint proposerHomeScore;\n    uint proposerAwayScore;\n    bool resolved;\n    int fixtureID;\n    uint totalAmount;\n    bool deleted;\n  }\n\n  address public master;\n  uint betCount;\n  uint[] betIDs;\n  mapping(uint => Bet) public bets;\n\n  /***********************************/\n  /************* MODIFIERS ***********/\n  /***********************************/\n\n\n  /***********************************/\n  /************** EVENTS *************/\n  /***********************************/\n\n  event BetChange(uint betID);\n  /***********************************/\n  /********* PUBLIC FUNCTIONS ********/\n  /***********************************/\n\n  /// @dev      Betting contract constructor sets initial bet count to 0\n  function Betting() public {\n    master = msg.sender;\n    betCount = 0;\n  }\n\n  /// @dev                    Allows a user to propose a bet\n  /// @param  _proof  The json file passing through from the football API\n  /// @param  _acceptorAmount The odds put forward by the user\n  /// @param  _home_score     The home score proposed by the user\n  /// @param  _away_score     The away score proposed by the user\n  function proposeBet(bytes memory _proof, uint _acceptorAmount, uint _home_score, uint _away_score) public payable {\n    require(verifyProof(_proof));\n    require(msg.value > 0);\n\n    string memory json = string(tlsnutils.getHTTPBody(_proof));\n    uint returnValue;\n    JsmnSolLib.Token[] memory tokens;\n    uint actualNum;\n    (returnValue, tokens, actualNum) = JsmnSolLib.parse(json, 100);\n    // Next check that the fixture being inputted has null scores (i.e. a fixture in the future)\n    string memory score1 = JsmnSolLib.getBytes(json, tokens[25].start, tokens[25].end);\n    string memory score2 = JsmnSolLib.getBytes(json, tokens[27].start, tokens[27].end);\n\n    require(compareStrings(score1,'null') && compareStrings(score2, 'null'));\n\n    string memory fixtureIDStr = JsmnSolLib.getBytes(json, tokens[5].start, tokens[5].end);\n    int fixtureID = JsmnSolLib.parseInt(fixtureIDStr);\n    uint betID = (betCount++)+1000;\n    betIDs.push(betID);\n    bets[betID] = Bet(betID, msg.sender, 0, false, _acceptorAmount, msg.value,_home_score,_away_score,false,fixtureID,(msg.value+_acceptorAmount), false);\n    BetChange(betID);\n  }\n\n  /// @dev       Compares two strings\n  /// @param  a  The first string to be compared\n  /// @param  b  The second string to be compared\n  /// @return    Returns true if two strings are the same, false otherwise\n  function compareStrings (string a, string b) public returns (bool){\n       return keccak256(a) == keccak256(b);\n   }\n\n   /// @dev            Allows a user to accept a proposed bet\n   /// @param  _betID  The bet ID that the user is accepting\n   /// @return         The second string to be compared\n\n  function acceptBet(uint _betID) public payable {\n    require((msg.value == (bets[_betID].acceptorAmount)) &&\n      !bets[_betID].accepted && (msg.sender != bets[_betID].proposer));\n      bets[_betID].acceptor = msg.sender;\n      bets[_betID].accepted = true;\n      BetChange(_betID);\n  }\n\n  /// @dev                    Calculates the winner of a specific bet\n  /// @param  _betID          The bet ID that is being used\n  /// @param  _proof  The json file with the fixture ID and results\n  function resolveBet(uint _betID, bytes memory _proof) public payable {\n    // First check that the json being passed in actually has scores for the match\n    require(verifyProof(_proof));\n\n    string memory json = string(tlsnutils.getHTTPBody(_proof));\n    uint returnValue;\n    JsmnSolLib.Token[] memory tokens;\n    uint actualNum;\n    (returnValue, tokens, actualNum) = JsmnSolLib.parse(json, 100);\n    string memory score1 = JsmnSolLib.getBytes(json, tokens[25].start, tokens[25].end);\n    string memory score2 = JsmnSolLib.getBytes(json, tokens[27].start, tokens[27].end);\n\n    string memory fixtureIDStr = JsmnSolLib.getBytes(json, tokens[5].start, tokens[5].end);\n    int fixtureID = JsmnSolLib.parseInt(fixtureIDStr);\n    require(fixtureID == bets[_betID].fixtureID);\n\n    require((!compareStrings(score1,'null') && !compareStrings(score2,'null')));\n    int score1int = JsmnSolLib.parseInt(score1);\n    int score2int = JsmnSolLib.parseInt(score2);\n    bets[_betID].resolved = true;\n\n    if (bets[_betID].proposerHomeScore == uint(score1int) && bets[_betID].proposerAwayScore == uint(score2int)) {\n      bets[_betID].proposer.transfer(bets[_betID].totalAmount);\n    }\n    else {\n      bets[_betID].acceptor.transfer(bets[_betID].totalAmount);\n    }\n  }\n\n  /**\n   * @dev            allows user to cancel a proposed bet, betID is deleted and\n   *                 bet funds transfered to the proposer\n   * @param _betID   The bet ID that is being canceled\n   */\n  function cancelBet(uint _betID) public payable {\n      require(bets[_betID].proposer == msg.sender);\n      require(bets[_betID].accepted == false);\n      bets[_betID].deleted = true;\n      BetChange(_betID);\n      bets[_betID].proposer.transfer(bets[_betID].proposerAmount);\n  }\n\n  /// @dev                    Returns details of a bet\n  /// @param  _betID          The bet ID that you are requesting\n  /// @return                 1. odds of the bet, 2. bet amount, 3. proposer home score,\n  ///                         4. proposer away score, 5. the fixture ID, 6. the proposer address\n  ///                         7. a boolean stating whether the bet has finished or not\n  function getBet(uint _betID) public constant returns (uint, uint, uint, uint, int, address, address) {\n    return  ( bets[_betID].proposerAmount,\n              bets[_betID].acceptorAmount,\n              bets[_betID].proposerHomeScore,\n              bets[_betID].proposerAwayScore,\n              bets[_betID].fixtureID,\n              bets[_betID].proposer,\n\t      bets[_betID].acceptor);\n  }\n\n  /// @dev                    Returns an array of all bet IDs\n  /// @return                 All bet IDs that have ever been created\n  function getBets() public constant returns (uint[]) {\n    return betIDs;\n  }\n\n  /// @dev                    Allows the requestor to see how many bets have been created\n  /// @return                 Returns an integer of the number of bets\n  function getNumberOfBets() public constant returns (uint) {\n   return betIDs.length;\n  }\n\n  /***********************************/\n  /******** PRIVATE FUNCTIONS ********/\n  /***********************************/\n\n  function verifyProof(bytes memory proof) private returns (bool){\n    uint256 qx = 0xe0a5793d275a533d50421b201c2c9a909abb58b1a9c0f9eb9b7963e5c8bc2295;\n    uint256 qy = 0xf34d47cb92b6474562675127677d4e446418498884c101aeb38f3afb0cab997e;\n\n    if(tlsnutils.verifyProof(proof, qx, qy)) {\n      return true;\n    }\n    return false;\n  }\n}\n",
  "sourcePath": "/home/mohammed/dev/imperial/BettingDapp/contracts/FootballBetting.sol",
  "compiler": {
    "name": "solc",
    "version": "0.4.18+commit.9cf6e910.Emscripten.clang"
  },
  "schemaVersion": "1.0.1",
  "updatedAt": "2018-05-12T19:40:05.872Z"
}